{
	"contracts/HashFunc.sol": {
		"HashFunc": {
			"abi": [
				{
					"inputs": [
						{
							"internalType": "string",
							"name": "text0",
							"type": "string"
						},
						{
							"internalType": "string",
							"name": "text1",
							"type": "string"
						}
					],
					"name": "collision",
					"outputs": [
						{
							"internalType": "bytes32",
							"name": "",
							"type": "bytes32"
						}
					],
					"stateMutability": "pure",
					"type": "function"
				},
				{
					"inputs": [
						{
							"internalType": "string",
							"name": "text0",
							"type": "string"
						},
						{
							"internalType": "uint256",
							"name": "x",
							"type": "uint256"
						},
						{
							"internalType": "string",
							"name": "text1",
							"type": "string"
						}
					],
					"name": "collisionFixed",
					"outputs": [
						{
							"internalType": "bytes32",
							"name": "",
							"type": "bytes32"
						}
					],
					"stateMutability": "pure",
					"type": "function"
				},
				{
					"inputs": [
						{
							"internalType": "string",
							"name": "text0",
							"type": "string"
						},
						{
							"internalType": "string",
							"name": "text1",
							"type": "string"
						}
					],
					"name": "encode",
					"outputs": [
						{
							"internalType": "bytes",
							"name": "",
							"type": "bytes"
						}
					],
					"stateMutability": "pure",
					"type": "function"
				},
				{
					"inputs": [
						{
							"internalType": "string",
							"name": "text0",
							"type": "string"
						},
						{
							"internalType": "string",
							"name": "text1",
							"type": "string"
						}
					],
					"name": "encodePacked",
					"outputs": [
						{
							"internalType": "bytes",
							"name": "",
							"type": "bytes"
						}
					],
					"stateMutability": "pure",
					"type": "function"
				},
				{
					"inputs": [
						{
							"internalType": "string",
							"name": "text",
							"type": "string"
						},
						{
							"internalType": "uint256",
							"name": "num",
							"type": "uint256"
						},
						{
							"internalType": "address",
							"name": "addr",
							"type": "address"
						}
					],
					"name": "hash",
					"outputs": [
						{
							"internalType": "bytes32",
							"name": "",
							"type": "bytes32"
						}
					],
					"stateMutability": "pure",
					"type": "function"
				}
			],
			"devdoc": {
				"kind": "dev",
				"methods": {},
				"version": 1
			},
			"evm": {
				"assembly": "    /* \"contracts/HashFunc.sol\":162:3186  contract HashFunc {... */\n  mstore(0x40, 0x80)\n  callvalue\n  dup1\n  iszero\n  tag_1\n  jumpi\n  0x00\n  dup1\n  revert\ntag_1:\n  pop\n  dataSize(sub_0)\n  dup1\n  dataOffset(sub_0)\n  0x00\n  codecopy\n  0x00\n  return\nstop\n\nsub_0: assembly {\n        /* \"contracts/HashFunc.sol\":162:3186  contract HashFunc {... */\n      mstore(0x40, 0x80)\n      callvalue\n      dup1\n      iszero\n      tag_1\n      jumpi\n      0x00\n      dup1\n      revert\n    tag_1:\n      pop\n      jumpi(tag_2, lt(calldatasize, 0x04))\n      shr(0xe0, calldataload(0x00))\n      dup1\n      0x17fe2da2\n      eq\n      tag_3\n      jumpi\n      dup1\n      0x526c7282\n      eq\n      tag_4\n      jumpi\n      dup1\n      0x5dda416e\n      eq\n      tag_5\n      jumpi\n      dup1\n      0x7b7fb982\n      eq\n      tag_6\n      jumpi\n      dup1\n      0x892e5d01\n      eq\n      tag_7\n      jumpi\n    tag_2:\n      0x00\n      dup1\n      revert\n        /* \"contracts/HashFunc.sol\":1938:2080  function encode(string memory text0, string memory text1) external pure returns(bytes memory) {... */\n    tag_3:\n      tag_8\n      0x04\n      dup1\n      calldatasize\n      sub\n      dup2\n      add\n      swap1\n      tag_9\n      swap2\n      swap1\n      tag_10\n      jump\t// in\n    tag_9:\n      tag_11\n      jump\t// in\n    tag_8:\n      mload(0x40)\n      tag_12\n      swap2\n      swap1\n      tag_13\n      jump\t// in\n    tag_12:\n      mload(0x40)\n      dup1\n      swap2\n      sub\n      swap1\n      return\n        /* \"contracts/HashFunc.sol\":3011:3184  function collisionFixed(string memory text0, uint x, string memory text1) external pure returns(bytes32) {... */\n    tag_4:\n      tag_14\n      0x04\n      dup1\n      calldatasize\n      sub\n      dup2\n      add\n      swap1\n      tag_15\n      swap2\n      swap1\n      tag_16\n      jump\t// in\n    tag_15:\n      tag_17\n      jump\t// in\n    tag_14:\n      mload(0x40)\n      tag_18\n      swap2\n      swap1\n      tag_19\n      jump\t// in\n    tag_18:\n      mload(0x40)\n      dup1\n      swap2\n      sub\n      swap1\n      return\n        /* \"contracts/HashFunc.sol\":394:552  function hash(string memory text, uint num, address addr) external pure returns (bytes32) {... */\n    tag_5:\n      tag_20\n      0x04\n      dup1\n      calldatasize\n      sub\n      dup2\n      add\n      swap1\n      tag_21\n      swap2\n      swap1\n      tag_22\n      jump\t// in\n    tag_21:\n      tag_23\n      jump\t// in\n    tag_20:\n      mload(0x40)\n      tag_24\n      swap2\n      swap1\n      tag_19\n      jump\t// in\n    tag_24:\n      mload(0x40)\n      dup1\n      swap2\n      sub\n      swap1\n      return\n        /* \"contracts/HashFunc.sol\":2669:2826  function collision(string memory text0, string memory text1) external pure returns(bytes32) {... */\n    tag_6:\n      tag_25\n      0x04\n      dup1\n      calldatasize\n      sub\n      dup2\n      add\n      swap1\n      tag_26\n      swap2\n      swap1\n      tag_10\n      jump\t// in\n    tag_26:\n      tag_27\n      jump\t// in\n    tag_25:\n      mload(0x40)\n      tag_28\n      swap2\n      swap1\n      tag_19\n      jump\t// in\n    tag_28:\n      mload(0x40)\n      dup1\n      swap2\n      sub\n      swap1\n      return\n        /* \"contracts/HashFunc.sol\":2090:2244  function encodePacked(string memory text0, string memory text1) external pure returns(bytes memory) {... */\n    tag_7:\n      tag_29\n      0x04\n      dup1\n      calldatasize\n      sub\n      dup2\n      add\n      swap1\n      tag_30\n      swap2\n      swap1\n      tag_10\n      jump\t// in\n    tag_30:\n      tag_31\n      jump\t// in\n    tag_29:\n      mload(0x40)\n      tag_32\n      swap2\n      swap1\n      tag_13\n      jump\t// in\n    tag_32:\n      mload(0x40)\n      dup1\n      swap2\n      sub\n      swap1\n      return\n        /* \"contracts/HashFunc.sol\":1938:2080  function encode(string memory text0, string memory text1) external pure returns(bytes memory) {... */\n    tag_11:\n        /* \"contracts/HashFunc.sol\":2018:2030  bytes memory */\n      0x60\n        /* \"contracts/HashFunc.sol\":2060:2065  text0 */\n      dup3\n        /* \"contracts/HashFunc.sol\":2067:2072  text1 */\n      dup3\n        /* \"contracts/HashFunc.sol\":2049:2073  abi.encode(text0, text1) */\n      add(0x20, mload(0x40))\n      tag_34\n      swap3\n      swap2\n      swap1\n      tag_35\n      jump\t// in\n    tag_34:\n      mload(0x40)\n      0x20\n      dup2\n      dup4\n      sub\n      sub\n      dup2\n      mstore\n      swap1\n      0x40\n      mstore\n        /* \"contracts/HashFunc.sol\":2042:2073  return abi.encode(text0, text1) */\n      swap1\n      pop\n        /* \"contracts/HashFunc.sol\":1938:2080  function encode(string memory text0, string memory text1) external pure returns(bytes memory) {... */\n      swap3\n      swap2\n      pop\n      pop\n      jump\t// out\n        /* \"contracts/HashFunc.sol\":3011:3184  function collisionFixed(string memory text0, uint x, string memory text1) external pure returns(bytes32) {... */\n    tag_17:\n        /* \"contracts/HashFunc.sol\":3107:3114  bytes32 */\n      0x00\n        /* \"contracts/HashFunc.sol\":3160:3165  text0 */\n      dup4\n        /* \"contracts/HashFunc.sol\":3167:3168  x */\n      dup4\n        /* \"contracts/HashFunc.sol\":3170:3175  text1 */\n      dup4\n        /* \"contracts/HashFunc.sol\":3143:3176  abi.encodePacked(text0, x, text1) */\n      add(0x20, mload(0x40))\n      tag_37\n      swap4\n      swap3\n      swap2\n      swap1\n      tag_38\n      jump\t// in\n    tag_37:\n      mload(0x40)\n      0x20\n      dup2\n      dup4\n      sub\n      sub\n      dup2\n      mstore\n      swap1\n      0x40\n      mstore\n        /* \"contracts/HashFunc.sol\":3133:3177  keccak256(abi.encodePacked(text0, x, text1)) */\n      dup1\n      mload\n      swap1\n      0x20\n      add\n      keccak256\n        /* \"contracts/HashFunc.sol\":3126:3177  return keccak256(abi.encodePacked(text0, x, text1)) */\n      swap1\n      pop\n        /* \"contracts/HashFunc.sol\":3011:3184  function collisionFixed(string memory text0, uint x, string memory text1) external pure returns(bytes32) {... */\n      swap4\n      swap3\n      pop\n      pop\n      pop\n      jump\t// out\n        /* \"contracts/HashFunc.sol\":394:552  function hash(string memory text, uint num, address addr) external pure returns (bytes32) {... */\n    tag_23:\n        /* \"contracts/HashFunc.sol\":475:482  bytes32 */\n      0x00\n        /* \"contracts/HashFunc.sol\":528:532  text */\n      dup4\n        /* \"contracts/HashFunc.sol\":534:537  num */\n      dup4\n        /* \"contracts/HashFunc.sol\":539:543  addr */\n      dup4\n        /* \"contracts/HashFunc.sol\":511:544  abi.encodePacked(text, num, addr) */\n      add(0x20, mload(0x40))\n      tag_40\n      swap4\n      swap3\n      swap2\n      swap1\n      tag_41\n      jump\t// in\n    tag_40:\n      mload(0x40)\n      0x20\n      dup2\n      dup4\n      sub\n      sub\n      dup2\n      mstore\n      swap1\n      0x40\n      mstore\n        /* \"contracts/HashFunc.sol\":501:545  keccak256(abi.encodePacked(text, num, addr)) */\n      dup1\n      mload\n      swap1\n      0x20\n      add\n      keccak256\n        /* \"contracts/HashFunc.sol\":494:545  return keccak256(abi.encodePacked(text, num, addr)) */\n      swap1\n      pop\n        /* \"contracts/HashFunc.sol\":394:552  function hash(string memory text, uint num, address addr) external pure returns (bytes32) {... */\n      swap4\n      swap3\n      pop\n      pop\n      pop\n      jump\t// out\n        /* \"contracts/HashFunc.sol\":2669:2826  function collision(string memory text0, string memory text1) external pure returns(bytes32) {... */\n    tag_27:\n        /* \"contracts/HashFunc.sol\":2752:2759  bytes32 */\n      0x00\n        /* \"contracts/HashFunc.sol\":2805:2810  text0 */\n      dup3\n        /* \"contracts/HashFunc.sol\":2812:2817  text1 */\n      dup3\n        /* \"contracts/HashFunc.sol\":2788:2818  abi.encodePacked(text0, text1) */\n      add(0x20, mload(0x40))\n      tag_43\n      swap3\n      swap2\n      swap1\n      tag_44\n      jump\t// in\n    tag_43:\n      mload(0x40)\n      0x20\n      dup2\n      dup4\n      sub\n      sub\n      dup2\n      mstore\n      swap1\n      0x40\n      mstore\n        /* \"contracts/HashFunc.sol\":2778:2819  keccak256(abi.encodePacked(text0, text1)) */\n      dup1\n      mload\n      swap1\n      0x20\n      add\n      keccak256\n        /* \"contracts/HashFunc.sol\":2771:2819  return keccak256(abi.encodePacked(text0, text1)) */\n      swap1\n      pop\n        /* \"contracts/HashFunc.sol\":2669:2826  function collision(string memory text0, string memory text1) external pure returns(bytes32) {... */\n      swap3\n      swap2\n      pop\n      pop\n      jump\t// out\n        /* \"contracts/HashFunc.sol\":2090:2244  function encodePacked(string memory text0, string memory text1) external pure returns(bytes memory) {... */\n    tag_31:\n        /* \"contracts/HashFunc.sol\":2176:2188  bytes memory */\n      0x60\n        /* \"contracts/HashFunc.sol\":2224:2229  text0 */\n      dup3\n        /* \"contracts/HashFunc.sol\":2231:2236  text1 */\n      dup3\n        /* \"contracts/HashFunc.sol\":2207:2237  abi.encodePacked(text0, text1) */\n      add(0x20, mload(0x40))\n      tag_46\n      swap3\n      swap2\n      swap1\n      tag_44\n      jump\t// in\n    tag_46:\n      mload(0x40)\n      0x20\n      dup2\n      dup4\n      sub\n      sub\n      dup2\n      mstore\n      swap1\n      0x40\n      mstore\n        /* \"contracts/HashFunc.sol\":2200:2237  return abi.encodePacked(text0, text1) */\n      swap1\n      pop\n        /* \"contracts/HashFunc.sol\":2090:2244  function encodePacked(string memory text0, string memory text1) external pure returns(bytes memory) {... */\n      swap3\n      swap2\n      pop\n      pop\n      jump\t// out\n        /* \"#utility.yul\":7:82   */\n    tag_47:\n        /* \"#utility.yul\":40:46   */\n      0x00\n        /* \"#utility.yul\":73:75   */\n      0x40\n        /* \"#utility.yul\":67:76   */\n      mload\n        /* \"#utility.yul\":57:76   */\n      swap1\n      pop\n        /* \"#utility.yul\":7:82   */\n      swap1\n      jump\t// out\n        /* \"#utility.yul\":88:205   */\n    tag_48:\n        /* \"#utility.yul\":197:198   */\n      0x00\n        /* \"#utility.yul\":194:195   */\n      dup1\n        /* \"#utility.yul\":187:199   */\n      revert\n        /* \"#utility.yul\":211:328   */\n    tag_49:\n        /* \"#utility.yul\":320:321   */\n      0x00\n        /* \"#utility.yul\":317:318   */\n      dup1\n        /* \"#utility.yul\":310:322   */\n      revert\n        /* \"#utility.yul\":334:451   */\n    tag_50:\n        /* \"#utility.yul\":443:444   */\n      0x00\n        /* \"#utility.yul\":440:441   */\n      dup1\n        /* \"#utility.yul\":433:445   */\n      revert\n        /* \"#utility.yul\":457:574   */\n    tag_51:\n        /* \"#utility.yul\":566:567   */\n      0x00\n        /* \"#utility.yul\":563:564   */\n      dup1\n        /* \"#utility.yul\":556:568   */\n      revert\n        /* \"#utility.yul\":580:682   */\n    tag_52:\n        /* \"#utility.yul\":621:627   */\n      0x00\n        /* \"#utility.yul\":672:674   */\n      0x1f\n        /* \"#utility.yul\":668:675   */\n      not\n        /* \"#utility.yul\":663:665   */\n      0x1f\n        /* \"#utility.yul\":656:661   */\n      dup4\n        /* \"#utility.yul\":652:666   */\n      add\n        /* \"#utility.yul\":648:676   */\n      and\n        /* \"#utility.yul\":638:676   */\n      swap1\n      pop\n        /* \"#utility.yul\":580:682   */\n      swap2\n      swap1\n      pop\n      jump\t// out\n        /* \"#utility.yul\":688:868   */\n    tag_53:\n        /* \"#utility.yul\":736:813   */\n      0x4e487b7100000000000000000000000000000000000000000000000000000000\n        /* \"#utility.yul\":733:734   */\n      0x00\n        /* \"#utility.yul\":726:814   */\n      mstore\n        /* \"#utility.yul\":833:837   */\n      0x41\n        /* \"#utility.yul\":830:831   */\n      0x04\n        /* \"#utility.yul\":823:838   */\n      mstore\n        /* \"#utility.yul\":857:861   */\n      0x24\n        /* \"#utility.yul\":854:855   */\n      0x00\n        /* \"#utility.yul\":847:862   */\n      revert\n        /* \"#utility.yul\":874:1155   */\n    tag_54:\n        /* \"#utility.yul\":957:984   */\n      tag_93\n        /* \"#utility.yul\":979:983   */\n      dup3\n        /* \"#utility.yul\":957:984   */\n      tag_52\n      jump\t// in\n    tag_93:\n        /* \"#utility.yul\":949:955   */\n      dup2\n        /* \"#utility.yul\":945:985   */\n      add\n        /* \"#utility.yul\":1087:1093   */\n      dup2\n        /* \"#utility.yul\":1075:1085   */\n      dup2\n        /* \"#utility.yul\":1072:1094   */\n      lt\n        /* \"#utility.yul\":1051:1069   */\n      0xffffffffffffffff\n        /* \"#utility.yul\":1039:1049   */\n      dup3\n        /* \"#utility.yul\":1036:1070   */\n      gt\n        /* \"#utility.yul\":1033:1095   */\n      or\n        /* \"#utility.yul\":1030:1118   */\n      iszero\n      tag_94\n      jumpi\n        /* \"#utility.yul\":1098:1116   */\n      tag_95\n      tag_53\n      jump\t// in\n    tag_95:\n        /* \"#utility.yul\":1030:1118   */\n    tag_94:\n        /* \"#utility.yul\":1138:1148   */\n      dup1\n        /* \"#utility.yul\":1134:1136   */\n      0x40\n        /* \"#utility.yul\":1127:1149   */\n      mstore\n        /* \"#utility.yul\":917:1155   */\n      pop\n        /* \"#utility.yul\":874:1155   */\n      pop\n      pop\n      jump\t// out\n        /* \"#utility.yul\":1161:1290   */\n    tag_55:\n        /* \"#utility.yul\":1195:1201   */\n      0x00\n        /* \"#utility.yul\":1222:1242   */\n      tag_97\n      tag_47\n      jump\t// in\n    tag_97:\n        /* \"#utility.yul\":1212:1242   */\n      swap1\n      pop\n        /* \"#utility.yul\":1251:1284   */\n      tag_98\n        /* \"#utility.yul\":1279:1283   */\n      dup3\n        /* \"#utility.yul\":1271:1277   */\n      dup3\n        /* \"#utility.yul\":1251:1284   */\n      tag_54\n      jump\t// in\n    tag_98:\n        /* \"#utility.yul\":1161:1290   */\n      swap2\n      swap1\n      pop\n      jump\t// out\n        /* \"#utility.yul\":1296:1604   */\n    tag_56:\n        /* \"#utility.yul\":1358:1362   */\n      0x00\n        /* \"#utility.yul\":1448:1466   */\n      0xffffffffffffffff\n        /* \"#utility.yul\":1440:1446   */\n      dup3\n        /* \"#utility.yul\":1437:1467   */\n      gt\n        /* \"#utility.yul\":1434:1490   */\n      iszero\n      tag_100\n      jumpi\n        /* \"#utility.yul\":1470:1488   */\n      tag_101\n      tag_53\n      jump\t// in\n    tag_101:\n        /* \"#utility.yul\":1434:1490   */\n    tag_100:\n        /* \"#utility.yul\":1508:1537   */\n      tag_102\n        /* \"#utility.yul\":1530:1536   */\n      dup3\n        /* \"#utility.yul\":1508:1537   */\n      tag_52\n      jump\t// in\n    tag_102:\n        /* \"#utility.yul\":1500:1537   */\n      swap1\n      pop\n        /* \"#utility.yul\":1592:1596   */\n      0x20\n        /* \"#utility.yul\":1586:1590   */\n      dup2\n        /* \"#utility.yul\":1582:1597   */\n      add\n        /* \"#utility.yul\":1574:1597   */\n      swap1\n      pop\n        /* \"#utility.yul\":1296:1604   */\n      swap2\n      swap1\n      pop\n      jump\t// out\n        /* \"#utility.yul\":1610:1756   */\n    tag_57:\n        /* \"#utility.yul\":1707:1713   */\n      dup3\n        /* \"#utility.yul\":1702:1705   */\n      dup2\n        /* \"#utility.yul\":1697:1700   */\n      dup4\n        /* \"#utility.yul\":1684:1714   */\n      calldatacopy\n        /* \"#utility.yul\":1748:1749   */\n      0x00\n        /* \"#utility.yul\":1739:1745   */\n      dup4\n        /* \"#utility.yul\":1734:1737   */\n      dup4\n        /* \"#utility.yul\":1730:1746   */\n      add\n        /* \"#utility.yul\":1723:1750   */\n      mstore\n        /* \"#utility.yul\":1610:1756   */\n      pop\n      pop\n      pop\n      jump\t// out\n        /* \"#utility.yul\":1762:2187   */\n    tag_58:\n        /* \"#utility.yul\":1840:1845   */\n      0x00\n        /* \"#utility.yul\":1865:1931   */\n      tag_105\n        /* \"#utility.yul\":1881:1930   */\n      tag_106\n        /* \"#utility.yul\":1923:1929   */\n      dup5\n        /* \"#utility.yul\":1881:1930   */\n      tag_56\n      jump\t// in\n    tag_106:\n        /* \"#utility.yul\":1865:1931   */\n      tag_55\n      jump\t// in\n    tag_105:\n        /* \"#utility.yul\":1856:1931   */\n      swap1\n      pop\n        /* \"#utility.yul\":1954:1960   */\n      dup3\n        /* \"#utility.yul\":1947:1952   */\n      dup2\n        /* \"#utility.yul\":1940:1961   */\n      mstore\n        /* \"#utility.yul\":1992:1996   */\n      0x20\n        /* \"#utility.yul\":1985:1990   */\n      dup2\n        /* \"#utility.yul\":1981:1997   */\n      add\n        /* \"#utility.yul\":2030:2033   */\n      dup5\n        /* \"#utility.yul\":2021:2027   */\n      dup5\n        /* \"#utility.yul\":2016:2019   */\n      dup5\n        /* \"#utility.yul\":2012:2028   */\n      add\n        /* \"#utility.yul\":2009:2034   */\n      gt\n        /* \"#utility.yul\":2006:2118   */\n      iszero\n      tag_107\n      jumpi\n        /* \"#utility.yul\":2037:2116   */\n      tag_108\n      tag_51\n      jump\t// in\n    tag_108:\n        /* \"#utility.yul\":2006:2118   */\n    tag_107:\n        /* \"#utility.yul\":2127:2181   */\n      tag_109\n        /* \"#utility.yul\":2174:2180   */\n      dup5\n        /* \"#utility.yul\":2169:2172   */\n      dup3\n        /* \"#utility.yul\":2164:2167   */\n      dup6\n        /* \"#utility.yul\":2127:2181   */\n      tag_57\n      jump\t// in\n    tag_109:\n        /* \"#utility.yul\":1846:2187   */\n      pop\n        /* \"#utility.yul\":1762:2187   */\n      swap4\n      swap3\n      pop\n      pop\n      pop\n      jump\t// out\n        /* \"#utility.yul\":2207:2547   */\n    tag_59:\n        /* \"#utility.yul\":2263:2268   */\n      0x00\n        /* \"#utility.yul\":2312:2315   */\n      dup3\n        /* \"#utility.yul\":2305:2309   */\n      0x1f\n        /* \"#utility.yul\":2297:2303   */\n      dup4\n        /* \"#utility.yul\":2293:2310   */\n      add\n        /* \"#utility.yul\":2289:2316   */\n      slt\n        /* \"#utility.yul\":2279:2401   */\n      tag_111\n      jumpi\n        /* \"#utility.yul\":2320:2399   */\n      tag_112\n      tag_50\n      jump\t// in\n    tag_112:\n        /* \"#utility.yul\":2279:2401   */\n    tag_111:\n        /* \"#utility.yul\":2437:2443   */\n      dup2\n        /* \"#utility.yul\":2424:2444   */\n      calldataload\n        /* \"#utility.yul\":2462:2541   */\n      tag_113\n        /* \"#utility.yul\":2537:2540   */\n      dup5\n        /* \"#utility.yul\":2529:2535   */\n      dup3\n        /* \"#utility.yul\":2522:2526   */\n      0x20\n        /* \"#utility.yul\":2514:2520   */\n      dup7\n        /* \"#utility.yul\":2510:2527   */\n      add\n        /* \"#utility.yul\":2462:2541   */\n      tag_58\n      jump\t// in\n    tag_113:\n        /* \"#utility.yul\":2453:2541   */\n      swap2\n      pop\n        /* \"#utility.yul\":2269:2547   */\n      pop\n        /* \"#utility.yul\":2207:2547   */\n      swap3\n      swap2\n      pop\n      pop\n      jump\t// out\n        /* \"#utility.yul\":2553:3387   */\n    tag_10:\n        /* \"#utility.yul\":2641:2647   */\n      0x00\n        /* \"#utility.yul\":2649:2655   */\n      dup1\n        /* \"#utility.yul\":2698:2700   */\n      0x40\n        /* \"#utility.yul\":2686:2695   */\n      dup4\n        /* \"#utility.yul\":2677:2684   */\n      dup6\n        /* \"#utility.yul\":2673:2696   */\n      sub\n        /* \"#utility.yul\":2669:2701   */\n      slt\n        /* \"#utility.yul\":2666:2785   */\n      iszero\n      tag_115\n      jumpi\n        /* \"#utility.yul\":2704:2783   */\n      tag_116\n      tag_48\n      jump\t// in\n    tag_116:\n        /* \"#utility.yul\":2666:2785   */\n    tag_115:\n        /* \"#utility.yul\":2852:2853   */\n      0x00\n        /* \"#utility.yul\":2841:2850   */\n      dup4\n        /* \"#utility.yul\":2837:2854   */\n      add\n        /* \"#utility.yul\":2824:2855   */\n      calldataload\n        /* \"#utility.yul\":2882:2900   */\n      0xffffffffffffffff\n        /* \"#utility.yul\":2874:2880   */\n      dup2\n        /* \"#utility.yul\":2871:2901   */\n      gt\n        /* \"#utility.yul\":2868:2985   */\n      iszero\n      tag_117\n      jumpi\n        /* \"#utility.yul\":2904:2983   */\n      tag_118\n      tag_49\n      jump\t// in\n    tag_118:\n        /* \"#utility.yul\":2868:2985   */\n    tag_117:\n        /* \"#utility.yul\":3009:3072   */\n      tag_119\n        /* \"#utility.yul\":3064:3071   */\n      dup6\n        /* \"#utility.yul\":3055:3061   */\n      dup3\n        /* \"#utility.yul\":3044:3053   */\n      dup7\n        /* \"#utility.yul\":3040:3062   */\n      add\n        /* \"#utility.yul\":3009:3072   */\n      tag_59\n      jump\t// in\n    tag_119:\n        /* \"#utility.yul\":2999:3072   */\n      swap3\n      pop\n        /* \"#utility.yul\":2795:3082   */\n      pop\n        /* \"#utility.yul\":3149:3151   */\n      0x20\n        /* \"#utility.yul\":3138:3147   */\n      dup4\n        /* \"#utility.yul\":3134:3152   */\n      add\n        /* \"#utility.yul\":3121:3153   */\n      calldataload\n        /* \"#utility.yul\":3180:3198   */\n      0xffffffffffffffff\n        /* \"#utility.yul\":3172:3178   */\n      dup2\n        /* \"#utility.yul\":3169:3199   */\n      gt\n        /* \"#utility.yul\":3166:3283   */\n      iszero\n      tag_120\n      jumpi\n        /* \"#utility.yul\":3202:3281   */\n      tag_121\n      tag_49\n      jump\t// in\n    tag_121:\n        /* \"#utility.yul\":3166:3283   */\n    tag_120:\n        /* \"#utility.yul\":3307:3370   */\n      tag_122\n        /* \"#utility.yul\":3362:3369   */\n      dup6\n        /* \"#utility.yul\":3353:3359   */\n      dup3\n        /* \"#utility.yul\":3342:3351   */\n      dup7\n        /* \"#utility.yul\":3338:3360   */\n      add\n        /* \"#utility.yul\":3307:3370   */\n      tag_59\n      jump\t// in\n    tag_122:\n        /* \"#utility.yul\":3297:3370   */\n      swap2\n      pop\n        /* \"#utility.yul\":3092:3380   */\n      pop\n        /* \"#utility.yul\":2553:3387   */\n      swap3\n      pop\n      swap3\n      swap1\n      pop\n      jump\t// out\n        /* \"#utility.yul\":3393:3491   */\n    tag_60:\n        /* \"#utility.yul\":3444:3450   */\n      0x00\n        /* \"#utility.yul\":3478:3483   */\n      dup2\n        /* \"#utility.yul\":3472:3484   */\n      mload\n        /* \"#utility.yul\":3462:3484   */\n      swap1\n      pop\n        /* \"#utility.yul\":3393:3491   */\n      swap2\n      swap1\n      pop\n      jump\t// out\n        /* \"#utility.yul\":3497:3665   */\n    tag_61:\n        /* \"#utility.yul\":3580:3591   */\n      0x00\n        /* \"#utility.yul\":3614:3620   */\n      dup3\n        /* \"#utility.yul\":3609:3612   */\n      dup3\n        /* \"#utility.yul\":3602:3621   */\n      mstore\n        /* \"#utility.yul\":3654:3658   */\n      0x20\n        /* \"#utility.yul\":3649:3652   */\n      dup3\n        /* \"#utility.yul\":3645:3659   */\n      add\n        /* \"#utility.yul\":3630:3659   */\n      swap1\n      pop\n        /* \"#utility.yul\":3497:3665   */\n      swap3\n      swap2\n      pop\n      pop\n      jump\t// out\n        /* \"#utility.yul\":3671:3917   */\n    tag_62:\n        /* \"#utility.yul\":3752:3753   */\n      0x00\n        /* \"#utility.yul\":3762:3875   */\n    tag_126:\n        /* \"#utility.yul\":3776:3782   */\n      dup4\n        /* \"#utility.yul\":3773:3774   */\n      dup2\n        /* \"#utility.yul\":3770:3783   */\n      lt\n        /* \"#utility.yul\":3762:3875   */\n      iszero\n      tag_128\n      jumpi\n        /* \"#utility.yul\":3861:3862   */\n      dup1\n        /* \"#utility.yul\":3856:3859   */\n      dup3\n        /* \"#utility.yul\":3852:3863   */\n      add\n        /* \"#utility.yul\":3846:3864   */\n      mload\n        /* \"#utility.yul\":3842:3843   */\n      dup2\n        /* \"#utility.yul\":3837:3840   */\n      dup5\n        /* \"#utility.yul\":3833:3844   */\n      add\n        /* \"#utility.yul\":3826:3865   */\n      mstore\n        /* \"#utility.yul\":3798:3800   */\n      0x20\n        /* \"#utility.yul\":3795:3796   */\n      dup2\n        /* \"#utility.yul\":3791:3801   */\n      add\n        /* \"#utility.yul\":3786:3801   */\n      swap1\n      pop\n        /* \"#utility.yul\":3762:3875   */\n      jump(tag_126)\n    tag_128:\n        /* \"#utility.yul\":3909:3910   */\n      0x00\n        /* \"#utility.yul\":3900:3906   */\n      dup5\n        /* \"#utility.yul\":3895:3898   */\n      dup5\n        /* \"#utility.yul\":3891:3907   */\n      add\n        /* \"#utility.yul\":3884:3911   */\n      mstore\n        /* \"#utility.yul\":3733:3917   */\n      pop\n        /* \"#utility.yul\":3671:3917   */\n      pop\n      pop\n      pop\n      jump\t// out\n        /* \"#utility.yul\":3923:4296   */\n    tag_63:\n        /* \"#utility.yul\":4009:4012   */\n      0x00\n        /* \"#utility.yul\":4037:4075   */\n      tag_130\n        /* \"#utility.yul\":4069:4074   */\n      dup3\n        /* \"#utility.yul\":4037:4075   */\n      tag_60\n      jump\t// in\n    tag_130:\n        /* \"#utility.yul\":4091:4161   */\n      tag_131\n        /* \"#utility.yul\":4154:4160   */\n      dup2\n        /* \"#utility.yul\":4149:4152   */\n      dup6\n        /* \"#utility.yul\":4091:4161   */\n      tag_61\n      jump\t// in\n    tag_131:\n        /* \"#utility.yul\":4084:4161   */\n      swap4\n      pop\n        /* \"#utility.yul\":4170:4235   */\n      tag_132\n        /* \"#utility.yul\":4228:4234   */\n      dup2\n        /* \"#utility.yul\":4223:4226   */\n      dup6\n        /* \"#utility.yul\":4216:4220   */\n      0x20\n        /* \"#utility.yul\":4209:4214   */\n      dup7\n        /* \"#utility.yul\":4205:4221   */\n      add\n        /* \"#utility.yul\":4170:4235   */\n      tag_62\n      jump\t// in\n    tag_132:\n        /* \"#utility.yul\":4260:4289   */\n      tag_133\n        /* \"#utility.yul\":4282:4288   */\n      dup2\n        /* \"#utility.yul\":4260:4289   */\n      tag_52\n      jump\t// in\n    tag_133:\n        /* \"#utility.yul\":4255:4258   */\n      dup5\n        /* \"#utility.yul\":4251:4290   */\n      add\n        /* \"#utility.yul\":4244:4290   */\n      swap2\n      pop\n        /* \"#utility.yul\":4013:4296   */\n      pop\n        /* \"#utility.yul\":3923:4296   */\n      swap3\n      swap2\n      pop\n      pop\n      jump\t// out\n        /* \"#utility.yul\":4302:4611   */\n    tag_13:\n        /* \"#utility.yul\":4413:4417   */\n      0x00\n        /* \"#utility.yul\":4451:4453   */\n      0x20\n        /* \"#utility.yul\":4440:4449   */\n      dup3\n        /* \"#utility.yul\":4436:4454   */\n      add\n        /* \"#utility.yul\":4428:4454   */\n      swap1\n      pop\n        /* \"#utility.yul\":4500:4509   */\n      dup2\n        /* \"#utility.yul\":4494:4498   */\n      dup2\n        /* \"#utility.yul\":4490:4510   */\n      sub\n        /* \"#utility.yul\":4486:4487   */\n      0x00\n        /* \"#utility.yul\":4475:4484   */\n      dup4\n        /* \"#utility.yul\":4471:4488   */\n      add\n        /* \"#utility.yul\":4464:4511   */\n      mstore\n        /* \"#utility.yul\":4528:4604   */\n      tag_135\n        /* \"#utility.yul\":4599:4603   */\n      dup2\n        /* \"#utility.yul\":4590:4596   */\n      dup5\n        /* \"#utility.yul\":4528:4604   */\n      tag_63\n      jump\t// in\n    tag_135:\n        /* \"#utility.yul\":4520:4604   */\n      swap1\n      pop\n        /* \"#utility.yul\":4302:4611   */\n      swap3\n      swap2\n      pop\n      pop\n      jump\t// out\n        /* \"#utility.yul\":4617:4694   */\n    tag_64:\n        /* \"#utility.yul\":4654:4661   */\n      0x00\n        /* \"#utility.yul\":4683:4688   */\n      dup2\n        /* \"#utility.yul\":4672:4688   */\n      swap1\n      pop\n        /* \"#utility.yul\":4617:4694   */\n      swap2\n      swap1\n      pop\n      jump\t// out\n        /* \"#utility.yul\":4700:4822   */\n    tag_65:\n        /* \"#utility.yul\":4773:4797   */\n      tag_138\n        /* \"#utility.yul\":4791:4796   */\n      dup2\n        /* \"#utility.yul\":4773:4797   */\n      tag_64\n      jump\t// in\n    tag_138:\n        /* \"#utility.yul\":4766:4771   */\n      dup2\n        /* \"#utility.yul\":4763:4798   */\n      eq\n        /* \"#utility.yul\":4753:4816   */\n      tag_139\n      jumpi\n        /* \"#utility.yul\":4812:4813   */\n      0x00\n        /* \"#utility.yul\":4809:4810   */\n      dup1\n        /* \"#utility.yul\":4802:4814   */\n      revert\n        /* \"#utility.yul\":4753:4816   */\n    tag_139:\n        /* \"#utility.yul\":4700:4822   */\n      pop\n      jump\t// out\n        /* \"#utility.yul\":4828:4967   */\n    tag_66:\n        /* \"#utility.yul\":4874:4879   */\n      0x00\n        /* \"#utility.yul\":4912:4918   */\n      dup2\n        /* \"#utility.yul\":4899:4919   */\n      calldataload\n        /* \"#utility.yul\":4890:4919   */\n      swap1\n      pop\n        /* \"#utility.yul\":4928:4961   */\n      tag_141\n        /* \"#utility.yul\":4955:4960   */\n      dup2\n        /* \"#utility.yul\":4928:4961   */\n      tag_65\n      jump\t// in\n    tag_141:\n        /* \"#utility.yul\":4828:4967   */\n      swap3\n      swap2\n      pop\n      pop\n      jump\t// out\n        /* \"#utility.yul\":4973:5952   */\n    tag_16:\n        /* \"#utility.yul\":5070:5076   */\n      0x00\n        /* \"#utility.yul\":5078:5084   */\n      dup1\n        /* \"#utility.yul\":5086:5092   */\n      0x00\n        /* \"#utility.yul\":5135:5137   */\n      0x60\n        /* \"#utility.yul\":5123:5132   */\n      dup5\n        /* \"#utility.yul\":5114:5121   */\n      dup7\n        /* \"#utility.yul\":5110:5133   */\n      sub\n        /* \"#utility.yul\":5106:5138   */\n      slt\n        /* \"#utility.yul\":5103:5222   */\n      iszero\n      tag_143\n      jumpi\n        /* \"#utility.yul\":5141:5220   */\n      tag_144\n      tag_48\n      jump\t// in\n    tag_144:\n        /* \"#utility.yul\":5103:5222   */\n    tag_143:\n        /* \"#utility.yul\":5289:5290   */\n      0x00\n        /* \"#utility.yul\":5278:5287   */\n      dup5\n        /* \"#utility.yul\":5274:5291   */\n      add\n        /* \"#utility.yul\":5261:5292   */\n      calldataload\n        /* \"#utility.yul\":5319:5337   */\n      0xffffffffffffffff\n        /* \"#utility.yul\":5311:5317   */\n      dup2\n        /* \"#utility.yul\":5308:5338   */\n      gt\n        /* \"#utility.yul\":5305:5422   */\n      iszero\n      tag_145\n      jumpi\n        /* \"#utility.yul\":5341:5420   */\n      tag_146\n      tag_49\n      jump\t// in\n    tag_146:\n        /* \"#utility.yul\":5305:5422   */\n    tag_145:\n        /* \"#utility.yul\":5446:5509   */\n      tag_147\n        /* \"#utility.yul\":5501:5508   */\n      dup7\n        /* \"#utility.yul\":5492:5498   */\n      dup3\n        /* \"#utility.yul\":5481:5490   */\n      dup8\n        /* \"#utility.yul\":5477:5499   */\n      add\n        /* \"#utility.yul\":5446:5509   */\n      tag_59\n      jump\t// in\n    tag_147:\n        /* \"#utility.yul\":5436:5509   */\n      swap4\n      pop\n        /* \"#utility.yul\":5232:5519   */\n      pop\n        /* \"#utility.yul\":5558:5560   */\n      0x20\n        /* \"#utility.yul\":5584:5637   */\n      tag_148\n        /* \"#utility.yul\":5629:5636   */\n      dup7\n        /* \"#utility.yul\":5620:5626   */\n      dup3\n        /* \"#utility.yul\":5609:5618   */\n      dup8\n        /* \"#utility.yul\":5605:5627   */\n      add\n        /* \"#utility.yul\":5584:5637   */\n      tag_66\n      jump\t// in\n    tag_148:\n        /* \"#utility.yul\":5574:5637   */\n      swap3\n      pop\n        /* \"#utility.yul\":5529:5647   */\n      pop\n        /* \"#utility.yul\":5714:5716   */\n      0x40\n        /* \"#utility.yul\":5703:5712   */\n      dup5\n        /* \"#utility.yul\":5699:5717   */\n      add\n        /* \"#utility.yul\":5686:5718   */\n      calldataload\n        /* \"#utility.yul\":5745:5763   */\n      0xffffffffffffffff\n        /* \"#utility.yul\":5737:5743   */\n      dup2\n        /* \"#utility.yul\":5734:5764   */\n      gt\n        /* \"#utility.yul\":5731:5848   */\n      iszero\n      tag_149\n      jumpi\n        /* \"#utility.yul\":5767:5846   */\n      tag_150\n      tag_49\n      jump\t// in\n    tag_150:\n        /* \"#utility.yul\":5731:5848   */\n    tag_149:\n        /* \"#utility.yul\":5872:5935   */\n      tag_151\n        /* \"#utility.yul\":5927:5934   */\n      dup7\n        /* \"#utility.yul\":5918:5924   */\n      dup3\n        /* \"#utility.yul\":5907:5916   */\n      dup8\n        /* \"#utility.yul\":5903:5925   */\n      add\n        /* \"#utility.yul\":5872:5935   */\n      tag_59\n      jump\t// in\n    tag_151:\n        /* \"#utility.yul\":5862:5935   */\n      swap2\n      pop\n        /* \"#utility.yul\":5657:5945   */\n      pop\n        /* \"#utility.yul\":4973:5952   */\n      swap3\n      pop\n      swap3\n      pop\n      swap3\n      jump\t// out\n        /* \"#utility.yul\":5958:6035   */\n    tag_67:\n        /* \"#utility.yul\":5995:6002   */\n      0x00\n        /* \"#utility.yul\":6024:6029   */\n      dup2\n        /* \"#utility.yul\":6013:6029   */\n      swap1\n      pop\n        /* \"#utility.yul\":5958:6035   */\n      swap2\n      swap1\n      pop\n      jump\t// out\n        /* \"#utility.yul\":6041:6159   */\n    tag_68:\n        /* \"#utility.yul\":6128:6152   */\n      tag_154\n        /* \"#utility.yul\":6146:6151   */\n      dup2\n        /* \"#utility.yul\":6128:6152   */\n      tag_67\n      jump\t// in\n    tag_154:\n        /* \"#utility.yul\":6123:6126   */\n      dup3\n        /* \"#utility.yul\":6116:6153   */\n      mstore\n        /* \"#utility.yul\":6041:6159   */\n      pop\n      pop\n      jump\t// out\n        /* \"#utility.yul\":6165:6387   */\n    tag_19:\n        /* \"#utility.yul\":6258:6262   */\n      0x00\n        /* \"#utility.yul\":6296:6298   */\n      0x20\n        /* \"#utility.yul\":6285:6294   */\n      dup3\n        /* \"#utility.yul\":6281:6299   */\n      add\n        /* \"#utility.yul\":6273:6299   */\n      swap1\n      pop\n        /* \"#utility.yul\":6309:6380   */\n      tag_156\n        /* \"#utility.yul\":6377:6378   */\n      0x00\n        /* \"#utility.yul\":6366:6375   */\n      dup4\n        /* \"#utility.yul\":6362:6379   */\n      add\n        /* \"#utility.yul\":6353:6359   */\n      dup5\n        /* \"#utility.yul\":6309:6380   */\n      tag_68\n      jump\t// in\n    tag_156:\n        /* \"#utility.yul\":6165:6387   */\n      swap3\n      swap2\n      pop\n      pop\n      jump\t// out\n        /* \"#utility.yul\":6393:6519   */\n    tag_69:\n        /* \"#utility.yul\":6430:6437   */\n      0x00\n        /* \"#utility.yul\":6470:6512   */\n      0xffffffffffffffffffffffffffffffffffffffff\n        /* \"#utility.yul\":6463:6468   */\n      dup3\n        /* \"#utility.yul\":6459:6513   */\n      and\n        /* \"#utility.yul\":6448:6513   */\n      swap1\n      pop\n        /* \"#utility.yul\":6393:6519   */\n      swap2\n      swap1\n      pop\n      jump\t// out\n        /* \"#utility.yul\":6525:6621   */\n    tag_70:\n        /* \"#utility.yul\":6562:6569   */\n      0x00\n        /* \"#utility.yul\":6591:6615   */\n      tag_159\n        /* \"#utility.yul\":6609:6614   */\n      dup3\n        /* \"#utility.yul\":6591:6615   */\n      tag_69\n      jump\t// in\n    tag_159:\n        /* \"#utility.yul\":6580:6615   */\n      swap1\n      pop\n        /* \"#utility.yul\":6525:6621   */\n      swap2\n      swap1\n      pop\n      jump\t// out\n        /* \"#utility.yul\":6627:6749   */\n    tag_71:\n        /* \"#utility.yul\":6700:6724   */\n      tag_161\n        /* \"#utility.yul\":6718:6723   */\n      dup2\n        /* \"#utility.yul\":6700:6724   */\n      tag_70\n      jump\t// in\n    tag_161:\n        /* \"#utility.yul\":6693:6698   */\n      dup2\n        /* \"#utility.yul\":6690:6725   */\n      eq\n        /* \"#utility.yul\":6680:6743   */\n      tag_162\n      jumpi\n        /* \"#utility.yul\":6739:6740   */\n      0x00\n        /* \"#utility.yul\":6736:6737   */\n      dup1\n        /* \"#utility.yul\":6729:6741   */\n      revert\n        /* \"#utility.yul\":6680:6743   */\n    tag_162:\n        /* \"#utility.yul\":6627:6749   */\n      pop\n      jump\t// out\n        /* \"#utility.yul\":6755:6894   */\n    tag_72:\n        /* \"#utility.yul\":6801:6806   */\n      0x00\n        /* \"#utility.yul\":6839:6845   */\n      dup2\n        /* \"#utility.yul\":6826:6846   */\n      calldataload\n        /* \"#utility.yul\":6817:6846   */\n      swap1\n      pop\n        /* \"#utility.yul\":6855:6888   */\n      tag_164\n        /* \"#utility.yul\":6882:6887   */\n      dup2\n        /* \"#utility.yul\":6855:6888   */\n      tag_71\n      jump\t// in\n    tag_164:\n        /* \"#utility.yul\":6755:6894   */\n      swap3\n      swap2\n      pop\n      pop\n      jump\t// out\n        /* \"#utility.yul\":6900:7699   */\n    tag_22:\n        /* \"#utility.yul\":6987:6993   */\n      0x00\n        /* \"#utility.yul\":6995:7001   */\n      dup1\n        /* \"#utility.yul\":7003:7009   */\n      0x00\n        /* \"#utility.yul\":7052:7054   */\n      0x60\n        /* \"#utility.yul\":7040:7049   */\n      dup5\n        /* \"#utility.yul\":7031:7038   */\n      dup7\n        /* \"#utility.yul\":7027:7050   */\n      sub\n        /* \"#utility.yul\":7023:7055   */\n      slt\n        /* \"#utility.yul\":7020:7139   */\n      iszero\n      tag_166\n      jumpi\n        /* \"#utility.yul\":7058:7137   */\n      tag_167\n      tag_48\n      jump\t// in\n    tag_167:\n        /* \"#utility.yul\":7020:7139   */\n    tag_166:\n        /* \"#utility.yul\":7206:7207   */\n      0x00\n        /* \"#utility.yul\":7195:7204   */\n      dup5\n        /* \"#utility.yul\":7191:7208   */\n      add\n        /* \"#utility.yul\":7178:7209   */\n      calldataload\n        /* \"#utility.yul\":7236:7254   */\n      0xffffffffffffffff\n        /* \"#utility.yul\":7228:7234   */\n      dup2\n        /* \"#utility.yul\":7225:7255   */\n      gt\n        /* \"#utility.yul\":7222:7339   */\n      iszero\n      tag_168\n      jumpi\n        /* \"#utility.yul\":7258:7337   */\n      tag_169\n      tag_49\n      jump\t// in\n    tag_169:\n        /* \"#utility.yul\":7222:7339   */\n    tag_168:\n        /* \"#utility.yul\":7363:7426   */\n      tag_170\n        /* \"#utility.yul\":7418:7425   */\n      dup7\n        /* \"#utility.yul\":7409:7415   */\n      dup3\n        /* \"#utility.yul\":7398:7407   */\n      dup8\n        /* \"#utility.yul\":7394:7416   */\n      add\n        /* \"#utility.yul\":7363:7426   */\n      tag_59\n      jump\t// in\n    tag_170:\n        /* \"#utility.yul\":7353:7426   */\n      swap4\n      pop\n        /* \"#utility.yul\":7149:7436   */\n      pop\n        /* \"#utility.yul\":7475:7477   */\n      0x20\n        /* \"#utility.yul\":7501:7554   */\n      tag_171\n        /* \"#utility.yul\":7546:7553   */\n      dup7\n        /* \"#utility.yul\":7537:7543   */\n      dup3\n        /* \"#utility.yul\":7526:7535   */\n      dup8\n        /* \"#utility.yul\":7522:7544   */\n      add\n        /* \"#utility.yul\":7501:7554   */\n      tag_66\n      jump\t// in\n    tag_171:\n        /* \"#utility.yul\":7491:7554   */\n      swap3\n      pop\n        /* \"#utility.yul\":7446:7564   */\n      pop\n        /* \"#utility.yul\":7603:7605   */\n      0x40\n        /* \"#utility.yul\":7629:7682   */\n      tag_172\n        /* \"#utility.yul\":7674:7681   */\n      dup7\n        /* \"#utility.yul\":7665:7671   */\n      dup3\n        /* \"#utility.yul\":7654:7663   */\n      dup8\n        /* \"#utility.yul\":7650:7672   */\n      add\n        /* \"#utility.yul\":7629:7682   */\n      tag_72\n      jump\t// in\n    tag_172:\n        /* \"#utility.yul\":7619:7682   */\n      swap2\n      pop\n        /* \"#utility.yul\":7574:7692   */\n      pop\n        /* \"#utility.yul\":6900:7699   */\n      swap3\n      pop\n      swap3\n      pop\n      swap3\n      jump\t// out\n        /* \"#utility.yul\":7705:7804   */\n    tag_73:\n        /* \"#utility.yul\":7757:7763   */\n      0x00\n        /* \"#utility.yul\":7791:7796   */\n      dup2\n        /* \"#utility.yul\":7785:7797   */\n      mload\n        /* \"#utility.yul\":7775:7797   */\n      swap1\n      pop\n        /* \"#utility.yul\":7705:7804   */\n      swap2\n      swap1\n      pop\n      jump\t// out\n        /* \"#utility.yul\":7810:7979   */\n    tag_74:\n        /* \"#utility.yul\":7894:7905   */\n      0x00\n        /* \"#utility.yul\":7928:7934   */\n      dup3\n        /* \"#utility.yul\":7923:7926   */\n      dup3\n        /* \"#utility.yul\":7916:7935   */\n      mstore\n        /* \"#utility.yul\":7968:7972   */\n      0x20\n        /* \"#utility.yul\":7963:7966   */\n      dup3\n        /* \"#utility.yul\":7959:7973   */\n      add\n        /* \"#utility.yul\":7944:7973   */\n      swap1\n      pop\n        /* \"#utility.yul\":7810:7979   */\n      swap3\n      swap2\n      pop\n      pop\n      jump\t// out\n        /* \"#utility.yul\":7985:8362   */\n    tag_75:\n        /* \"#utility.yul\":8073:8076   */\n      0x00\n        /* \"#utility.yul\":8101:8140   */\n      tag_176\n        /* \"#utility.yul\":8134:8139   */\n      dup3\n        /* \"#utility.yul\":8101:8140   */\n      tag_73\n      jump\t// in\n    tag_176:\n        /* \"#utility.yul\":8156:8227   */\n      tag_177\n        /* \"#utility.yul\":8220:8226   */\n      dup2\n        /* \"#utility.yul\":8215:8218   */\n      dup6\n        /* \"#utility.yul\":8156:8227   */\n      tag_74\n      jump\t// in\n    tag_177:\n        /* \"#utility.yul\":8149:8227   */\n      swap4\n      pop\n        /* \"#utility.yul\":8236:8301   */\n      tag_178\n        /* \"#utility.yul\":8294:8300   */\n      dup2\n        /* \"#utility.yul\":8289:8292   */\n      dup6\n        /* \"#utility.yul\":8282:8286   */\n      0x20\n        /* \"#utility.yul\":8275:8280   */\n      dup7\n        /* \"#utility.yul\":8271:8287   */\n      add\n        /* \"#utility.yul\":8236:8301   */\n      tag_62\n      jump\t// in\n    tag_178:\n        /* \"#utility.yul\":8326:8355   */\n      tag_179\n        /* \"#utility.yul\":8348:8354   */\n      dup2\n        /* \"#utility.yul\":8326:8355   */\n      tag_52\n      jump\t// in\n    tag_179:\n        /* \"#utility.yul\":8321:8324   */\n      dup5\n        /* \"#utility.yul\":8317:8356   */\n      add\n        /* \"#utility.yul\":8310:8356   */\n      swap2\n      pop\n        /* \"#utility.yul\":8077:8362   */\n      pop\n        /* \"#utility.yul\":7985:8362   */\n      swap3\n      swap2\n      pop\n      pop\n      jump\t// out\n        /* \"#utility.yul\":8368:8882   */\n    tag_35:\n        /* \"#utility.yul\":8529:8533   */\n      0x00\n        /* \"#utility.yul\":8567:8569   */\n      0x40\n        /* \"#utility.yul\":8556:8565   */\n      dup3\n        /* \"#utility.yul\":8552:8570   */\n      add\n        /* \"#utility.yul\":8544:8570   */\n      swap1\n      pop\n        /* \"#utility.yul\":8616:8625   */\n      dup2\n        /* \"#utility.yul\":8610:8614   */\n      dup2\n        /* \"#utility.yul\":8606:8626   */\n      sub\n        /* \"#utility.yul\":8602:8603   */\n      0x00\n        /* \"#utility.yul\":8591:8600   */\n      dup4\n        /* \"#utility.yul\":8587:8604   */\n      add\n        /* \"#utility.yul\":8580:8627   */\n      mstore\n        /* \"#utility.yul\":8644:8722   */\n      tag_181\n        /* \"#utility.yul\":8717:8721   */\n      dup2\n        /* \"#utility.yul\":8708:8714   */\n      dup6\n        /* \"#utility.yul\":8644:8722   */\n      tag_75\n      jump\t// in\n    tag_181:\n        /* \"#utility.yul\":8636:8722   */\n      swap1\n      pop\n        /* \"#utility.yul\":8769:8778   */\n      dup2\n        /* \"#utility.yul\":8763:8767   */\n      dup2\n        /* \"#utility.yul\":8759:8779   */\n      sub\n        /* \"#utility.yul\":8754:8756   */\n      0x20\n        /* \"#utility.yul\":8743:8752   */\n      dup4\n        /* \"#utility.yul\":8739:8757   */\n      add\n        /* \"#utility.yul\":8732:8780   */\n      mstore\n        /* \"#utility.yul\":8797:8875   */\n      tag_182\n        /* \"#utility.yul\":8870:8874   */\n      dup2\n        /* \"#utility.yul\":8861:8867   */\n      dup5\n        /* \"#utility.yul\":8797:8875   */\n      tag_75\n      jump\t// in\n    tag_182:\n        /* \"#utility.yul\":8789:8875   */\n      swap1\n      pop\n        /* \"#utility.yul\":8368:8882   */\n      swap4\n      swap3\n      pop\n      pop\n      pop\n      jump\t// out\n        /* \"#utility.yul\":8888:9036   */\n    tag_76:\n        /* \"#utility.yul\":8990:9001   */\n      0x00\n        /* \"#utility.yul\":9027:9030   */\n      dup2\n        /* \"#utility.yul\":9012:9030   */\n      swap1\n      pop\n        /* \"#utility.yul\":8888:9036   */\n      swap3\n      swap2\n      pop\n      pop\n      jump\t// out\n        /* \"#utility.yul\":9042:9432   */\n    tag_77:\n        /* \"#utility.yul\":9148:9151   */\n      0x00\n        /* \"#utility.yul\":9176:9215   */\n      tag_185\n        /* \"#utility.yul\":9209:9214   */\n      dup3\n        /* \"#utility.yul\":9176:9215   */\n      tag_73\n      jump\t// in\n    tag_185:\n        /* \"#utility.yul\":9231:9320   */\n      tag_186\n        /* \"#utility.yul\":9313:9319   */\n      dup2\n        /* \"#utility.yul\":9308:9311   */\n      dup6\n        /* \"#utility.yul\":9231:9320   */\n      tag_76\n      jump\t// in\n    tag_186:\n        /* \"#utility.yul\":9224:9320   */\n      swap4\n      pop\n        /* \"#utility.yul\":9329:9394   */\n      tag_187\n        /* \"#utility.yul\":9387:9393   */\n      dup2\n        /* \"#utility.yul\":9382:9385   */\n      dup6\n        /* \"#utility.yul\":9375:9379   */\n      0x20\n        /* \"#utility.yul\":9368:9373   */\n      dup7\n        /* \"#utility.yul\":9364:9380   */\n      add\n        /* \"#utility.yul\":9329:9394   */\n      tag_62\n      jump\t// in\n    tag_187:\n        /* \"#utility.yul\":9419:9425   */\n      dup1\n        /* \"#utility.yul\":9414:9417   */\n      dup5\n        /* \"#utility.yul\":9410:9426   */\n      add\n        /* \"#utility.yul\":9403:9426   */\n      swap2\n      pop\n        /* \"#utility.yul\":9152:9432   */\n      pop\n        /* \"#utility.yul\":9042:9432   */\n      swap3\n      swap2\n      pop\n      pop\n      jump\t// out\n        /* \"#utility.yul\":9438:9517   */\n    tag_78:\n        /* \"#utility.yul\":9477:9484   */\n      0x00\n        /* \"#utility.yul\":9506:9511   */\n      dup2\n        /* \"#utility.yul\":9495:9511   */\n      swap1\n      pop\n        /* \"#utility.yul\":9438:9517   */\n      swap2\n      swap1\n      pop\n      jump\t// out\n        /* \"#utility.yul\":9523:9680   */\n    tag_79:\n        /* \"#utility.yul\":9628:9673   */\n      tag_190\n        /* \"#utility.yul\":9648:9672   */\n      tag_191\n        /* \"#utility.yul\":9666:9671   */\n      dup3\n        /* \"#utility.yul\":9648:9672   */\n      tag_64\n      jump\t// in\n    tag_191:\n        /* \"#utility.yul\":9628:9673   */\n      tag_78\n      jump\t// in\n    tag_190:\n        /* \"#utility.yul\":9623:9626   */\n      dup3\n        /* \"#utility.yul\":9616:9674   */\n      mstore\n        /* \"#utility.yul\":9523:9680   */\n      pop\n      pop\n      jump\t// out\n        /* \"#utility.yul\":9686:10262   */\n    tag_38:\n        /* \"#utility.yul\":9894:9897   */\n      0x00\n        /* \"#utility.yul\":9916:10011   */\n      tag_193\n        /* \"#utility.yul\":10007:10010   */\n      dup3\n        /* \"#utility.yul\":9998:10004   */\n      dup7\n        /* \"#utility.yul\":9916:10011   */\n      tag_77\n      jump\t// in\n    tag_193:\n        /* \"#utility.yul\":9909:10011   */\n      swap2\n      pop\n        /* \"#utility.yul\":10021:10096   */\n      tag_194\n        /* \"#utility.yul\":10092:10095   */\n      dup3\n        /* \"#utility.yul\":10083:10089   */\n      dup6\n        /* \"#utility.yul\":10021:10096   */\n      tag_79\n      jump\t// in\n    tag_194:\n        /* \"#utility.yul\":10121:10123   */\n      0x20\n        /* \"#utility.yul\":10116:10119   */\n      dup3\n        /* \"#utility.yul\":10112:10124   */\n      add\n        /* \"#utility.yul\":10105:10124   */\n      swap2\n      pop\n        /* \"#utility.yul\":10141:10236   */\n      tag_195\n        /* \"#utility.yul\":10232:10235   */\n      dup3\n        /* \"#utility.yul\":10223:10229   */\n      dup5\n        /* \"#utility.yul\":10141:10236   */\n      tag_77\n      jump\t// in\n    tag_195:\n        /* \"#utility.yul\":10134:10236   */\n      swap2\n      pop\n        /* \"#utility.yul\":10253:10256   */\n      dup2\n        /* \"#utility.yul\":10246:10256   */\n      swap1\n      pop\n        /* \"#utility.yul\":9686:10262   */\n      swap5\n      swap4\n      pop\n      pop\n      pop\n      pop\n      jump\t// out\n        /* \"#utility.yul\":10268:10362   */\n    tag_80:\n        /* \"#utility.yul\":10301:10309   */\n      0x00\n        /* \"#utility.yul\":10349:10354   */\n      dup2\n        /* \"#utility.yul\":10345:10347   */\n      0x60\n        /* \"#utility.yul\":10341:10355   */\n      shl\n        /* \"#utility.yul\":10320:10355   */\n      swap1\n      pop\n        /* \"#utility.yul\":10268:10362   */\n      swap2\n      swap1\n      pop\n      jump\t// out\n        /* \"#utility.yul\":10368:10462   */\n    tag_81:\n        /* \"#utility.yul\":10407:10414   */\n      0x00\n        /* \"#utility.yul\":10436:10456   */\n      tag_198\n        /* \"#utility.yul\":10450:10455   */\n      dup3\n        /* \"#utility.yul\":10436:10456   */\n      tag_80\n      jump\t// in\n    tag_198:\n        /* \"#utility.yul\":10425:10456   */\n      swap1\n      pop\n        /* \"#utility.yul\":10368:10462   */\n      swap2\n      swap1\n      pop\n      jump\t// out\n        /* \"#utility.yul\":10468:10568   */\n    tag_82:\n        /* \"#utility.yul\":10507:10514   */\n      0x00\n        /* \"#utility.yul\":10536:10562   */\n      tag_200\n        /* \"#utility.yul\":10556:10561   */\n      dup3\n        /* \"#utility.yul\":10536:10562   */\n      tag_81\n      jump\t// in\n    tag_200:\n        /* \"#utility.yul\":10525:10562   */\n      swap1\n      pop\n        /* \"#utility.yul\":10468:10568   */\n      swap2\n      swap1\n      pop\n      jump\t// out\n        /* \"#utility.yul\":10574:10731   */\n    tag_83:\n        /* \"#utility.yul\":10679:10724   */\n      tag_202\n        /* \"#utility.yul\":10699:10723   */\n      tag_203\n        /* \"#utility.yul\":10717:10722   */\n      dup3\n        /* \"#utility.yul\":10699:10723   */\n      tag_70\n      jump\t// in\n    tag_203:\n        /* \"#utility.yul\":10679:10724   */\n      tag_82\n      jump\t// in\n    tag_202:\n        /* \"#utility.yul\":10674:10677   */\n      dup3\n        /* \"#utility.yul\":10667:10725   */\n      mstore\n        /* \"#utility.yul\":10574:10731   */\n      pop\n      pop\n      jump\t// out\n        /* \"#utility.yul\":10737:11294   */\n    tag_41:\n        /* \"#utility.yul\":10925:10928   */\n      0x00\n        /* \"#utility.yul\":10947:11042   */\n      tag_205\n        /* \"#utility.yul\":11038:11041   */\n      dup3\n        /* \"#utility.yul\":11029:11035   */\n      dup7\n        /* \"#utility.yul\":10947:11042   */\n      tag_77\n      jump\t// in\n    tag_205:\n        /* \"#utility.yul\":10940:11042   */\n      swap2\n      pop\n        /* \"#utility.yul\":11052:11127   */\n      tag_206\n        /* \"#utility.yul\":11123:11126   */\n      dup3\n        /* \"#utility.yul\":11114:11120   */\n      dup6\n        /* \"#utility.yul\":11052:11127   */\n      tag_79\n      jump\t// in\n    tag_206:\n        /* \"#utility.yul\":11152:11154   */\n      0x20\n        /* \"#utility.yul\":11147:11150   */\n      dup3\n        /* \"#utility.yul\":11143:11155   */\n      add\n        /* \"#utility.yul\":11136:11155   */\n      swap2\n      pop\n        /* \"#utility.yul\":11165:11240   */\n      tag_207\n        /* \"#utility.yul\":11236:11239   */\n      dup3\n        /* \"#utility.yul\":11227:11233   */\n      dup5\n        /* \"#utility.yul\":11165:11240   */\n      tag_83\n      jump\t// in\n    tag_207:\n        /* \"#utility.yul\":11265:11267   */\n      0x14\n        /* \"#utility.yul\":11260:11263   */\n      dup3\n        /* \"#utility.yul\":11256:11268   */\n      add\n        /* \"#utility.yul\":11249:11268   */\n      swap2\n      pop\n        /* \"#utility.yul\":11285:11288   */\n      dup2\n        /* \"#utility.yul\":11278:11288   */\n      swap1\n      pop\n        /* \"#utility.yul\":10737:11294   */\n      swap5\n      swap4\n      pop\n      pop\n      pop\n      pop\n      jump\t// out\n        /* \"#utility.yul\":11300:11735   */\n    tag_44:\n        /* \"#utility.yul\":11480:11483   */\n      0x00\n        /* \"#utility.yul\":11502:11597   */\n      tag_209\n        /* \"#utility.yul\":11593:11596   */\n      dup3\n        /* \"#utility.yul\":11584:11590   */\n      dup6\n        /* \"#utility.yul\":11502:11597   */\n      tag_77\n      jump\t// in\n    tag_209:\n        /* \"#utility.yul\":11495:11597   */\n      swap2\n      pop\n        /* \"#utility.yul\":11614:11709   */\n      tag_210\n        /* \"#utility.yul\":11705:11708   */\n      dup3\n        /* \"#utility.yul\":11696:11702   */\n      dup5\n        /* \"#utility.yul\":11614:11709   */\n      tag_77\n      jump\t// in\n    tag_210:\n        /* \"#utility.yul\":11607:11709   */\n      swap2\n      pop\n        /* \"#utility.yul\":11726:11729   */\n      dup2\n        /* \"#utility.yul\":11719:11729   */\n      swap1\n      pop\n        /* \"#utility.yul\":11300:11735   */\n      swap4\n      swap3\n      pop\n      pop\n      pop\n      jump\t// out\n\n    auxdata: 0xa26469706673582212203c2733613435c1297c5c104d6dd7b49756f88d52cb94cc644d91b485cea8a8c764736f6c63430008130033\n}\n",
				"bytecode": {
					"linkReferences": {},
					"object": "608060405234801561001057600080fd5b50610871806100206000396000f3fe608060405234801561001057600080fd5b50600436106100575760003560e01c806317fe2da21461005c578063526c72821461008c5780635dda416e146100bc5780637b7fb982146100ec578063892e5d011461011c575b600080fd5b6100766004803603810190610071919061039d565b61014c565b6040516100839190610494565b60405180910390f35b6100a660048036038101906100a191906104ec565b610178565b6040516100b39190610590565b60405180910390f35b6100d660048036038101906100d19190610609565b6101ae565b6040516100e39190610590565b60405180910390f35b6101066004803603810190610101919061039d565b6101e4565b6040516101139190610590565b60405180910390f35b6101366004803603810190610131919061039d565b610217565b6040516101439190610494565b60405180910390f35b606082826040516020016101619291906106cd565b604051602081830303815290604052905092915050565b600083838360405160200161018f93929190610761565b6040516020818303038152906040528051906020012090509392505050565b60008383836040516020016101c5939291906107de565b6040516020818303038152906040528051906020012090509392505050565b600082826040516020016101f9929190610817565b60405160208183030381529060405280519060200120905092915050565b6060828260405160200161022c929190610817565b604051602081830303815290604052905092915050565b6000604051905090565b600080fd5b600080fd5b600080fd5b600080fd5b6000601f19601f8301169050919050565b7f4e487b7100000000000000000000000000000000000000000000000000000000600052604160045260246000fd5b6102aa82610261565b810181811067ffffffffffffffff821117156102c9576102c8610272565b5b80604052505050565b60006102dc610243565b90506102e882826102a1565b919050565b600067ffffffffffffffff82111561030857610307610272565b5b61031182610261565b9050602081019050919050565b82818337600083830152505050565b600061034061033b846102ed565b6102d2565b90508281526020810184848401111561035c5761035b61025c565b5b61036784828561031e565b509392505050565b600082601f83011261038457610383610257565b5b813561039484826020860161032d565b91505092915050565b600080604083850312156103b4576103b361024d565b5b600083013567ffffffffffffffff8111156103d2576103d1610252565b5b6103de8582860161036f565b925050602083013567ffffffffffffffff8111156103ff576103fe610252565b5b61040b8582860161036f565b9150509250929050565b600081519050919050565b600082825260208201905092915050565b60005b8381101561044f578082015181840152602081019050610434565b60008484015250505050565b600061046682610415565b6104708185610420565b9350610480818560208601610431565b61048981610261565b840191505092915050565b600060208201905081810360008301526104ae818461045b565b905092915050565b6000819050919050565b6104c9816104b6565b81146104d457600080fd5b50565b6000813590506104e6816104c0565b92915050565b6000806000606084860312156105055761050461024d565b5b600084013567ffffffffffffffff81111561052357610522610252565b5b61052f8682870161036f565b9350506020610540868287016104d7565b925050604084013567ffffffffffffffff81111561056157610560610252565b5b61056d8682870161036f565b9150509250925092565b6000819050919050565b61058a81610577565b82525050565b60006020820190506105a56000830184610581565b92915050565b600073ffffffffffffffffffffffffffffffffffffffff82169050919050565b60006105d6826105ab565b9050919050565b6105e6816105cb565b81146105f157600080fd5b50565b600081359050610603816105dd565b92915050565b6000806000606084860312156106225761062161024d565b5b600084013567ffffffffffffffff8111156106405761063f610252565b5b61064c8682870161036f565b935050602061065d868287016104d7565b925050604061066e868287016105f4565b9150509250925092565b600081519050919050565b600082825260208201905092915050565b600061069f82610678565b6106a98185610683565b93506106b9818560208601610431565b6106c281610261565b840191505092915050565b600060408201905081810360008301526106e78185610694565b905081810360208301526106fb8184610694565b90509392505050565b600081905092915050565b600061071a82610678565b6107248185610704565b9350610734818560208601610431565b80840191505092915050565b6000819050919050565b61075b610756826104b6565b610740565b82525050565b600061076d828661070f565b9150610779828561074a565b602082019150610789828461070f565b9150819050949350505050565b60008160601b9050919050565b60006107ae82610796565b9050919050565b60006107c0826107a3565b9050919050565b6107d86107d3826105cb565b6107b5565b82525050565b60006107ea828661070f565b91506107f6828561074a565b60208201915061080682846107c7565b601482019150819050949350505050565b6000610823828561070f565b915061082f828461070f565b9150819050939250505056fea26469706673582212203c2733613435c1297c5c104d6dd7b49756f88d52cb94cc644d91b485cea8a8c764736f6c63430008130033",
					"opcodes": "PUSH1 0x80 PUSH1 0x40 MSTORE CALLVALUE DUP1 ISZERO PUSH2 0x10 JUMPI PUSH1 0x0 DUP1 REVERT JUMPDEST POP PUSH2 0x871 DUP1 PUSH2 0x20 PUSH1 0x0 CODECOPY PUSH1 0x0 RETURN INVALID PUSH1 0x80 PUSH1 0x40 MSTORE CALLVALUE DUP1 ISZERO PUSH2 0x10 JUMPI PUSH1 0x0 DUP1 REVERT JUMPDEST POP PUSH1 0x4 CALLDATASIZE LT PUSH2 0x57 JUMPI PUSH1 0x0 CALLDATALOAD PUSH1 0xE0 SHR DUP1 PUSH4 0x17FE2DA2 EQ PUSH2 0x5C JUMPI DUP1 PUSH4 0x526C7282 EQ PUSH2 0x8C JUMPI DUP1 PUSH4 0x5DDA416E EQ PUSH2 0xBC JUMPI DUP1 PUSH4 0x7B7FB982 EQ PUSH2 0xEC JUMPI DUP1 PUSH4 0x892E5D01 EQ PUSH2 0x11C JUMPI JUMPDEST PUSH1 0x0 DUP1 REVERT JUMPDEST PUSH2 0x76 PUSH1 0x4 DUP1 CALLDATASIZE SUB DUP2 ADD SWAP1 PUSH2 0x71 SWAP2 SWAP1 PUSH2 0x39D JUMP JUMPDEST PUSH2 0x14C JUMP JUMPDEST PUSH1 0x40 MLOAD PUSH2 0x83 SWAP2 SWAP1 PUSH2 0x494 JUMP JUMPDEST PUSH1 0x40 MLOAD DUP1 SWAP2 SUB SWAP1 RETURN JUMPDEST PUSH2 0xA6 PUSH1 0x4 DUP1 CALLDATASIZE SUB DUP2 ADD SWAP1 PUSH2 0xA1 SWAP2 SWAP1 PUSH2 0x4EC JUMP JUMPDEST PUSH2 0x178 JUMP JUMPDEST PUSH1 0x40 MLOAD PUSH2 0xB3 SWAP2 SWAP1 PUSH2 0x590 JUMP JUMPDEST PUSH1 0x40 MLOAD DUP1 SWAP2 SUB SWAP1 RETURN JUMPDEST PUSH2 0xD6 PUSH1 0x4 DUP1 CALLDATASIZE SUB DUP2 ADD SWAP1 PUSH2 0xD1 SWAP2 SWAP1 PUSH2 0x609 JUMP JUMPDEST PUSH2 0x1AE JUMP JUMPDEST PUSH1 0x40 MLOAD PUSH2 0xE3 SWAP2 SWAP1 PUSH2 0x590 JUMP JUMPDEST PUSH1 0x40 MLOAD DUP1 SWAP2 SUB SWAP1 RETURN JUMPDEST PUSH2 0x106 PUSH1 0x4 DUP1 CALLDATASIZE SUB DUP2 ADD SWAP1 PUSH2 0x101 SWAP2 SWAP1 PUSH2 0x39D JUMP JUMPDEST PUSH2 0x1E4 JUMP JUMPDEST PUSH1 0x40 MLOAD PUSH2 0x113 SWAP2 SWAP1 PUSH2 0x590 JUMP JUMPDEST PUSH1 0x40 MLOAD DUP1 SWAP2 SUB SWAP1 RETURN JUMPDEST PUSH2 0x136 PUSH1 0x4 DUP1 CALLDATASIZE SUB DUP2 ADD SWAP1 PUSH2 0x131 SWAP2 SWAP1 PUSH2 0x39D JUMP JUMPDEST PUSH2 0x217 JUMP JUMPDEST PUSH1 0x40 MLOAD PUSH2 0x143 SWAP2 SWAP1 PUSH2 0x494 JUMP JUMPDEST PUSH1 0x40 MLOAD DUP1 SWAP2 SUB SWAP1 RETURN JUMPDEST PUSH1 0x60 DUP3 DUP3 PUSH1 0x40 MLOAD PUSH1 0x20 ADD PUSH2 0x161 SWAP3 SWAP2 SWAP1 PUSH2 0x6CD JUMP JUMPDEST PUSH1 0x40 MLOAD PUSH1 0x20 DUP2 DUP4 SUB SUB DUP2 MSTORE SWAP1 PUSH1 0x40 MSTORE SWAP1 POP SWAP3 SWAP2 POP POP JUMP JUMPDEST PUSH1 0x0 DUP4 DUP4 DUP4 PUSH1 0x40 MLOAD PUSH1 0x20 ADD PUSH2 0x18F SWAP4 SWAP3 SWAP2 SWAP1 PUSH2 0x761 JUMP JUMPDEST PUSH1 0x40 MLOAD PUSH1 0x20 DUP2 DUP4 SUB SUB DUP2 MSTORE SWAP1 PUSH1 0x40 MSTORE DUP1 MLOAD SWAP1 PUSH1 0x20 ADD KECCAK256 SWAP1 POP SWAP4 SWAP3 POP POP POP JUMP JUMPDEST PUSH1 0x0 DUP4 DUP4 DUP4 PUSH1 0x40 MLOAD PUSH1 0x20 ADD PUSH2 0x1C5 SWAP4 SWAP3 SWAP2 SWAP1 PUSH2 0x7DE JUMP JUMPDEST PUSH1 0x40 MLOAD PUSH1 0x20 DUP2 DUP4 SUB SUB DUP2 MSTORE SWAP1 PUSH1 0x40 MSTORE DUP1 MLOAD SWAP1 PUSH1 0x20 ADD KECCAK256 SWAP1 POP SWAP4 SWAP3 POP POP POP JUMP JUMPDEST PUSH1 0x0 DUP3 DUP3 PUSH1 0x40 MLOAD PUSH1 0x20 ADD PUSH2 0x1F9 SWAP3 SWAP2 SWAP1 PUSH2 0x817 JUMP JUMPDEST PUSH1 0x40 MLOAD PUSH1 0x20 DUP2 DUP4 SUB SUB DUP2 MSTORE SWAP1 PUSH1 0x40 MSTORE DUP1 MLOAD SWAP1 PUSH1 0x20 ADD KECCAK256 SWAP1 POP SWAP3 SWAP2 POP POP JUMP JUMPDEST PUSH1 0x60 DUP3 DUP3 PUSH1 0x40 MLOAD PUSH1 0x20 ADD PUSH2 0x22C SWAP3 SWAP2 SWAP1 PUSH2 0x817 JUMP JUMPDEST PUSH1 0x40 MLOAD PUSH1 0x20 DUP2 DUP4 SUB SUB DUP2 MSTORE SWAP1 PUSH1 0x40 MSTORE SWAP1 POP SWAP3 SWAP2 POP POP JUMP JUMPDEST PUSH1 0x0 PUSH1 0x40 MLOAD SWAP1 POP SWAP1 JUMP JUMPDEST PUSH1 0x0 DUP1 REVERT JUMPDEST PUSH1 0x0 DUP1 REVERT JUMPDEST PUSH1 0x0 DUP1 REVERT JUMPDEST PUSH1 0x0 DUP1 REVERT JUMPDEST PUSH1 0x0 PUSH1 0x1F NOT PUSH1 0x1F DUP4 ADD AND SWAP1 POP SWAP2 SWAP1 POP JUMP JUMPDEST PUSH32 0x4E487B7100000000000000000000000000000000000000000000000000000000 PUSH1 0x0 MSTORE PUSH1 0x41 PUSH1 0x4 MSTORE PUSH1 0x24 PUSH1 0x0 REVERT JUMPDEST PUSH2 0x2AA DUP3 PUSH2 0x261 JUMP JUMPDEST DUP2 ADD DUP2 DUP2 LT PUSH8 0xFFFFFFFFFFFFFFFF DUP3 GT OR ISZERO PUSH2 0x2C9 JUMPI PUSH2 0x2C8 PUSH2 0x272 JUMP JUMPDEST JUMPDEST DUP1 PUSH1 0x40 MSTORE POP POP POP JUMP JUMPDEST PUSH1 0x0 PUSH2 0x2DC PUSH2 0x243 JUMP JUMPDEST SWAP1 POP PUSH2 0x2E8 DUP3 DUP3 PUSH2 0x2A1 JUMP JUMPDEST SWAP2 SWAP1 POP JUMP JUMPDEST PUSH1 0x0 PUSH8 0xFFFFFFFFFFFFFFFF DUP3 GT ISZERO PUSH2 0x308 JUMPI PUSH2 0x307 PUSH2 0x272 JUMP JUMPDEST JUMPDEST PUSH2 0x311 DUP3 PUSH2 0x261 JUMP JUMPDEST SWAP1 POP PUSH1 0x20 DUP2 ADD SWAP1 POP SWAP2 SWAP1 POP JUMP JUMPDEST DUP3 DUP2 DUP4 CALLDATACOPY PUSH1 0x0 DUP4 DUP4 ADD MSTORE POP POP POP JUMP JUMPDEST PUSH1 0x0 PUSH2 0x340 PUSH2 0x33B DUP5 PUSH2 0x2ED JUMP JUMPDEST PUSH2 0x2D2 JUMP JUMPDEST SWAP1 POP DUP3 DUP2 MSTORE PUSH1 0x20 DUP2 ADD DUP5 DUP5 DUP5 ADD GT ISZERO PUSH2 0x35C JUMPI PUSH2 0x35B PUSH2 0x25C JUMP JUMPDEST JUMPDEST PUSH2 0x367 DUP5 DUP3 DUP6 PUSH2 0x31E JUMP JUMPDEST POP SWAP4 SWAP3 POP POP POP JUMP JUMPDEST PUSH1 0x0 DUP3 PUSH1 0x1F DUP4 ADD SLT PUSH2 0x384 JUMPI PUSH2 0x383 PUSH2 0x257 JUMP JUMPDEST JUMPDEST DUP2 CALLDATALOAD PUSH2 0x394 DUP5 DUP3 PUSH1 0x20 DUP7 ADD PUSH2 0x32D JUMP JUMPDEST SWAP2 POP POP SWAP3 SWAP2 POP POP JUMP JUMPDEST PUSH1 0x0 DUP1 PUSH1 0x40 DUP4 DUP6 SUB SLT ISZERO PUSH2 0x3B4 JUMPI PUSH2 0x3B3 PUSH2 0x24D JUMP JUMPDEST JUMPDEST PUSH1 0x0 DUP4 ADD CALLDATALOAD PUSH8 0xFFFFFFFFFFFFFFFF DUP2 GT ISZERO PUSH2 0x3D2 JUMPI PUSH2 0x3D1 PUSH2 0x252 JUMP JUMPDEST JUMPDEST PUSH2 0x3DE DUP6 DUP3 DUP7 ADD PUSH2 0x36F JUMP JUMPDEST SWAP3 POP POP PUSH1 0x20 DUP4 ADD CALLDATALOAD PUSH8 0xFFFFFFFFFFFFFFFF DUP2 GT ISZERO PUSH2 0x3FF JUMPI PUSH2 0x3FE PUSH2 0x252 JUMP JUMPDEST JUMPDEST PUSH2 0x40B DUP6 DUP3 DUP7 ADD PUSH2 0x36F JUMP JUMPDEST SWAP2 POP POP SWAP3 POP SWAP3 SWAP1 POP JUMP JUMPDEST PUSH1 0x0 DUP2 MLOAD SWAP1 POP SWAP2 SWAP1 POP JUMP JUMPDEST PUSH1 0x0 DUP3 DUP3 MSTORE PUSH1 0x20 DUP3 ADD SWAP1 POP SWAP3 SWAP2 POP POP JUMP JUMPDEST PUSH1 0x0 JUMPDEST DUP4 DUP2 LT ISZERO PUSH2 0x44F JUMPI DUP1 DUP3 ADD MLOAD DUP2 DUP5 ADD MSTORE PUSH1 0x20 DUP2 ADD SWAP1 POP PUSH2 0x434 JUMP JUMPDEST PUSH1 0x0 DUP5 DUP5 ADD MSTORE POP POP POP POP JUMP JUMPDEST PUSH1 0x0 PUSH2 0x466 DUP3 PUSH2 0x415 JUMP JUMPDEST PUSH2 0x470 DUP2 DUP6 PUSH2 0x420 JUMP JUMPDEST SWAP4 POP PUSH2 0x480 DUP2 DUP6 PUSH1 0x20 DUP7 ADD PUSH2 0x431 JUMP JUMPDEST PUSH2 0x489 DUP2 PUSH2 0x261 JUMP JUMPDEST DUP5 ADD SWAP2 POP POP SWAP3 SWAP2 POP POP JUMP JUMPDEST PUSH1 0x0 PUSH1 0x20 DUP3 ADD SWAP1 POP DUP2 DUP2 SUB PUSH1 0x0 DUP4 ADD MSTORE PUSH2 0x4AE DUP2 DUP5 PUSH2 0x45B JUMP JUMPDEST SWAP1 POP SWAP3 SWAP2 POP POP JUMP JUMPDEST PUSH1 0x0 DUP2 SWAP1 POP SWAP2 SWAP1 POP JUMP JUMPDEST PUSH2 0x4C9 DUP2 PUSH2 0x4B6 JUMP JUMPDEST DUP2 EQ PUSH2 0x4D4 JUMPI PUSH1 0x0 DUP1 REVERT JUMPDEST POP JUMP JUMPDEST PUSH1 0x0 DUP2 CALLDATALOAD SWAP1 POP PUSH2 0x4E6 DUP2 PUSH2 0x4C0 JUMP JUMPDEST SWAP3 SWAP2 POP POP JUMP JUMPDEST PUSH1 0x0 DUP1 PUSH1 0x0 PUSH1 0x60 DUP5 DUP7 SUB SLT ISZERO PUSH2 0x505 JUMPI PUSH2 0x504 PUSH2 0x24D JUMP JUMPDEST JUMPDEST PUSH1 0x0 DUP5 ADD CALLDATALOAD PUSH8 0xFFFFFFFFFFFFFFFF DUP2 GT ISZERO PUSH2 0x523 JUMPI PUSH2 0x522 PUSH2 0x252 JUMP JUMPDEST JUMPDEST PUSH2 0x52F DUP7 DUP3 DUP8 ADD PUSH2 0x36F JUMP JUMPDEST SWAP4 POP POP PUSH1 0x20 PUSH2 0x540 DUP7 DUP3 DUP8 ADD PUSH2 0x4D7 JUMP JUMPDEST SWAP3 POP POP PUSH1 0x40 DUP5 ADD CALLDATALOAD PUSH8 0xFFFFFFFFFFFFFFFF DUP2 GT ISZERO PUSH2 0x561 JUMPI PUSH2 0x560 PUSH2 0x252 JUMP JUMPDEST JUMPDEST PUSH2 0x56D DUP7 DUP3 DUP8 ADD PUSH2 0x36F JUMP JUMPDEST SWAP2 POP POP SWAP3 POP SWAP3 POP SWAP3 JUMP JUMPDEST PUSH1 0x0 DUP2 SWAP1 POP SWAP2 SWAP1 POP JUMP JUMPDEST PUSH2 0x58A DUP2 PUSH2 0x577 JUMP JUMPDEST DUP3 MSTORE POP POP JUMP JUMPDEST PUSH1 0x0 PUSH1 0x20 DUP3 ADD SWAP1 POP PUSH2 0x5A5 PUSH1 0x0 DUP4 ADD DUP5 PUSH2 0x581 JUMP JUMPDEST SWAP3 SWAP2 POP POP JUMP JUMPDEST PUSH1 0x0 PUSH20 0xFFFFFFFFFFFFFFFFFFFFFFFFFFFFFFFFFFFFFFFF DUP3 AND SWAP1 POP SWAP2 SWAP1 POP JUMP JUMPDEST PUSH1 0x0 PUSH2 0x5D6 DUP3 PUSH2 0x5AB JUMP JUMPDEST SWAP1 POP SWAP2 SWAP1 POP JUMP JUMPDEST PUSH2 0x5E6 DUP2 PUSH2 0x5CB JUMP JUMPDEST DUP2 EQ PUSH2 0x5F1 JUMPI PUSH1 0x0 DUP1 REVERT JUMPDEST POP JUMP JUMPDEST PUSH1 0x0 DUP2 CALLDATALOAD SWAP1 POP PUSH2 0x603 DUP2 PUSH2 0x5DD JUMP JUMPDEST SWAP3 SWAP2 POP POP JUMP JUMPDEST PUSH1 0x0 DUP1 PUSH1 0x0 PUSH1 0x60 DUP5 DUP7 SUB SLT ISZERO PUSH2 0x622 JUMPI PUSH2 0x621 PUSH2 0x24D JUMP JUMPDEST JUMPDEST PUSH1 0x0 DUP5 ADD CALLDATALOAD PUSH8 0xFFFFFFFFFFFFFFFF DUP2 GT ISZERO PUSH2 0x640 JUMPI PUSH2 0x63F PUSH2 0x252 JUMP JUMPDEST JUMPDEST PUSH2 0x64C DUP7 DUP3 DUP8 ADD PUSH2 0x36F JUMP JUMPDEST SWAP4 POP POP PUSH1 0x20 PUSH2 0x65D DUP7 DUP3 DUP8 ADD PUSH2 0x4D7 JUMP JUMPDEST SWAP3 POP POP PUSH1 0x40 PUSH2 0x66E DUP7 DUP3 DUP8 ADD PUSH2 0x5F4 JUMP JUMPDEST SWAP2 POP POP SWAP3 POP SWAP3 POP SWAP3 JUMP JUMPDEST PUSH1 0x0 DUP2 MLOAD SWAP1 POP SWAP2 SWAP1 POP JUMP JUMPDEST PUSH1 0x0 DUP3 DUP3 MSTORE PUSH1 0x20 DUP3 ADD SWAP1 POP SWAP3 SWAP2 POP POP JUMP JUMPDEST PUSH1 0x0 PUSH2 0x69F DUP3 PUSH2 0x678 JUMP JUMPDEST PUSH2 0x6A9 DUP2 DUP6 PUSH2 0x683 JUMP JUMPDEST SWAP4 POP PUSH2 0x6B9 DUP2 DUP6 PUSH1 0x20 DUP7 ADD PUSH2 0x431 JUMP JUMPDEST PUSH2 0x6C2 DUP2 PUSH2 0x261 JUMP JUMPDEST DUP5 ADD SWAP2 POP POP SWAP3 SWAP2 POP POP JUMP JUMPDEST PUSH1 0x0 PUSH1 0x40 DUP3 ADD SWAP1 POP DUP2 DUP2 SUB PUSH1 0x0 DUP4 ADD MSTORE PUSH2 0x6E7 DUP2 DUP6 PUSH2 0x694 JUMP JUMPDEST SWAP1 POP DUP2 DUP2 SUB PUSH1 0x20 DUP4 ADD MSTORE PUSH2 0x6FB DUP2 DUP5 PUSH2 0x694 JUMP JUMPDEST SWAP1 POP SWAP4 SWAP3 POP POP POP JUMP JUMPDEST PUSH1 0x0 DUP2 SWAP1 POP SWAP3 SWAP2 POP POP JUMP JUMPDEST PUSH1 0x0 PUSH2 0x71A DUP3 PUSH2 0x678 JUMP JUMPDEST PUSH2 0x724 DUP2 DUP6 PUSH2 0x704 JUMP JUMPDEST SWAP4 POP PUSH2 0x734 DUP2 DUP6 PUSH1 0x20 DUP7 ADD PUSH2 0x431 JUMP JUMPDEST DUP1 DUP5 ADD SWAP2 POP POP SWAP3 SWAP2 POP POP JUMP JUMPDEST PUSH1 0x0 DUP2 SWAP1 POP SWAP2 SWAP1 POP JUMP JUMPDEST PUSH2 0x75B PUSH2 0x756 DUP3 PUSH2 0x4B6 JUMP JUMPDEST PUSH2 0x740 JUMP JUMPDEST DUP3 MSTORE POP POP JUMP JUMPDEST PUSH1 0x0 PUSH2 0x76D DUP3 DUP7 PUSH2 0x70F JUMP JUMPDEST SWAP2 POP PUSH2 0x779 DUP3 DUP6 PUSH2 0x74A JUMP JUMPDEST PUSH1 0x20 DUP3 ADD SWAP2 POP PUSH2 0x789 DUP3 DUP5 PUSH2 0x70F JUMP JUMPDEST SWAP2 POP DUP2 SWAP1 POP SWAP5 SWAP4 POP POP POP POP JUMP JUMPDEST PUSH1 0x0 DUP2 PUSH1 0x60 SHL SWAP1 POP SWAP2 SWAP1 POP JUMP JUMPDEST PUSH1 0x0 PUSH2 0x7AE DUP3 PUSH2 0x796 JUMP JUMPDEST SWAP1 POP SWAP2 SWAP1 POP JUMP JUMPDEST PUSH1 0x0 PUSH2 0x7C0 DUP3 PUSH2 0x7A3 JUMP JUMPDEST SWAP1 POP SWAP2 SWAP1 POP JUMP JUMPDEST PUSH2 0x7D8 PUSH2 0x7D3 DUP3 PUSH2 0x5CB JUMP JUMPDEST PUSH2 0x7B5 JUMP JUMPDEST DUP3 MSTORE POP POP JUMP JUMPDEST PUSH1 0x0 PUSH2 0x7EA DUP3 DUP7 PUSH2 0x70F JUMP JUMPDEST SWAP2 POP PUSH2 0x7F6 DUP3 DUP6 PUSH2 0x74A JUMP JUMPDEST PUSH1 0x20 DUP3 ADD SWAP2 POP PUSH2 0x806 DUP3 DUP5 PUSH2 0x7C7 JUMP JUMPDEST PUSH1 0x14 DUP3 ADD SWAP2 POP DUP2 SWAP1 POP SWAP5 SWAP4 POP POP POP POP JUMP JUMPDEST PUSH1 0x0 PUSH2 0x823 DUP3 DUP6 PUSH2 0x70F JUMP JUMPDEST SWAP2 POP PUSH2 0x82F DUP3 DUP5 PUSH2 0x70F JUMP JUMPDEST SWAP2 POP DUP2 SWAP1 POP SWAP4 SWAP3 POP POP POP JUMP INVALID LOG2 PUSH5 0x6970667358 0x22 SLT KECCAK256 EXTCODECOPY 0x27 CALLER PUSH2 0x3435 0xC1 0x29 PUSH29 0x5C104D6DD7B49756F88D52CB94CC644D91B485CEA8A8C764736F6C6343 STOP ADDMOD SGT STOP CALLER "
				},
				"gasEstimates": {
					"creation": {
						"codeDepositCost": "432200",
						"executionCost": "468",
						"totalCost": "432668"
					},
					"external": {
						"collision(string,string)": "infinite",
						"collisionFixed(string,uint256,string)": "infinite",
						"encode(string,string)": "infinite",
						"encodePacked(string,string)": "infinite",
						"hash(string,uint256,address)": "infinite"
					}
				},
				"methodIdentifiers": {
					"collision(string,string)": "7b7fb982",
					"collisionFixed(string,uint256,string)": "526c7282",
					"encode(string,string)": "17fe2da2",
					"encodePacked(string,string)": "892e5d01",
					"hash(string,uint256,address)": "5dda416e"
				}
			},
			"storageLayout": {
				"storage": [],
				"types": null
			},
			"userdoc": {
				"kind": "user",
				"methods": {},
				"version": 1
			}
		}
	}
}