{
	"contracts/Constructor.sol": {
		"FunctionOutputs": {
			"abi": [
				{
					"inputs": [],
					"name": "assigned",
					"outputs": [
						{
							"internalType": "uint256",
							"name": "x",
							"type": "uint256"
						},
						{
							"internalType": "bool",
							"name": "b",
							"type": "bool"
						}
					],
					"stateMutability": "pure",
					"type": "function"
				},
				{
					"inputs": [],
					"name": "destructuringAssignments",
					"outputs": [],
					"stateMutability": "pure",
					"type": "function"
				},
				{
					"inputs": [],
					"name": "named",
					"outputs": [
						{
							"internalType": "uint256",
							"name": "x",
							"type": "uint256"
						},
						{
							"internalType": "bool",
							"name": "b",
							"type": "bool"
						}
					],
					"stateMutability": "pure",
					"type": "function"
				},
				{
					"inputs": [],
					"name": "returnMany",
					"outputs": [
						{
							"internalType": "uint256",
							"name": "",
							"type": "uint256"
						},
						{
							"internalType": "bool",
							"name": "",
							"type": "bool"
						}
					],
					"stateMutability": "pure",
					"type": "function"
				}
			],
			"devdoc": {
				"kind": "dev",
				"methods": {},
				"version": 1
			},
			"evm": {
				"assembly": "    /* \"contracts/Constructor.sol\":143:836  contract FunctionOutputs {... */\n  mstore(0x40, 0x80)\n  callvalue\n  dup1\n  iszero\n  tag_1\n  jumpi\n  0x00\n  dup1\n  revert\ntag_1:\n  pop\n  dataSize(sub_0)\n  dup1\n  dataOffset(sub_0)\n  0x00\n  codecopy\n  0x00\n  return\nstop\n\nsub_0: assembly {\n        /* \"contracts/Constructor.sol\":143:836  contract FunctionOutputs {... */\n      mstore(0x40, 0x80)\n      callvalue\n      dup1\n      iszero\n      tag_1\n      jumpi\n      0x00\n      dup1\n      revert\n    tag_1:\n      pop\n      jumpi(tag_2, lt(calldatasize, 0x04))\n      shr(0xe0, calldataload(0x00))\n      dup1\n      0x45f907a8\n      eq\n      tag_3\n      jumpi\n      dup1\n      0x68873440\n      eq\n      tag_4\n      jumpi\n      dup1\n      0x86887544\n      eq\n      tag_5\n      jumpi\n      dup1\n      0xadb4d990\n      eq\n      tag_6\n      jumpi\n    tag_2:\n      0x00\n      dup1\n      revert\n        /* \"contracts/Constructor.sol\":325:412  function named() public pure returns (uint x, bool b) {... */\n    tag_3:\n      tag_7\n      tag_8\n      jump\t// in\n    tag_7:\n      mload(0x40)\n      tag_9\n      swap3\n      swap2\n      swap1\n      tag_10\n      jump\t// in\n    tag_9:\n      mload(0x40)\n      dup1\n      swap2\n      sub\n      swap1\n      return\n        /* \"contracts/Constructor.sol\":622:834  function destructuringAssignments() public pure {... */\n    tag_4:\n      tag_11\n      tag_12\n      jump\t// in\n    tag_11:\n      stop\n        /* \"contracts/Constructor.sol\":200:288  function returnMany() public pure returns (uint, bool) {... */\n    tag_5:\n      tag_13\n      tag_14\n      jump\t// in\n    tag_13:\n      mload(0x40)\n      tag_15\n      swap3\n      swap2\n      swap1\n      tag_10\n      jump\t// in\n    tag_15:\n      mload(0x40)\n      dup1\n      swap2\n      sub\n      swap1\n      return\n        /* \"contracts/Constructor.sol\":519:616  function assigned() public pure returns (uint x, bool b) {... */\n    tag_6:\n      tag_16\n      tag_17\n      jump\t// in\n    tag_16:\n      mload(0x40)\n      tag_18\n      swap3\n      swap2\n      swap1\n      tag_10\n      jump\t// in\n    tag_18:\n      mload(0x40)\n      dup1\n      swap2\n      sub\n      swap1\n      return\n        /* \"contracts/Constructor.sol\":325:412  function named() public pure returns (uint x, bool b) {... */\n    tag_8:\n        /* \"contracts/Constructor.sol\":363:369  uint x */\n      0x00\n        /* \"contracts/Constructor.sol\":371:377  bool b */\n      dup1\n        /* \"contracts/Constructor.sol\":397:398  1 */\n      0x01\n        /* \"contracts/Constructor.sol\":400:404  true */\n      dup1\n        /* \"contracts/Constructor.sol\":389:405  return (1, true) */\n      swap2\n      pop\n      swap2\n      pop\n        /* \"contracts/Constructor.sol\":325:412  function named() public pure returns (uint x, bool b) {... */\n      swap1\n      swap2\n      jump\t// out\n        /* \"contracts/Constructor.sol\":622:834  function destructuringAssignments() public pure {... */\n    tag_12:\n        /* \"contracts/Constructor.sol\":681:687  uint x */\n      0x00\n        /* \"contracts/Constructor.sol\":689:695  bool b */\n      dup1\n        /* \"contracts/Constructor.sol\":699:711  returnMany() */\n      tag_21\n        /* \"contracts/Constructor.sol\":699:709  returnMany */\n      tag_14\n        /* \"contracts/Constructor.sol\":699:711  returnMany() */\n      jump\t// in\n    tag_21:\n        /* \"contracts/Constructor.sol\":680:711  (uint x, bool b) = returnMany() */\n      swap2\n      pop\n      swap2\n      pop\n        /* \"contracts/Constructor.sol\":803:810  bool _b */\n      0x00\n        /* \"contracts/Constructor.sol\":814:826  returnMany() */\n      tag_22\n        /* \"contracts/Constructor.sol\":814:824  returnMany */\n      tag_14\n        /* \"contracts/Constructor.sol\":814:826  returnMany() */\n      jump\t// in\n    tag_22:\n        /* \"contracts/Constructor.sol\":800:826  (, bool _b) = returnMany() */\n      swap2\n      pop\n      pop\n        /* \"contracts/Constructor.sol\":670:834  {... */\n      pop\n      pop\n      pop\n        /* \"contracts/Constructor.sol\":622:834  function destructuringAssignments() public pure {... */\n      jump\t// out\n        /* \"contracts/Constructor.sol\":200:288  function returnMany() public pure returns (uint, bool) {... */\n    tag_14:\n        /* \"contracts/Constructor.sol\":243:247  uint */\n      0x00\n        /* \"contracts/Constructor.sol\":249:253  bool */\n      dup1\n        /* \"contracts/Constructor.sol\":273:274  1 */\n      0x01\n        /* \"contracts/Constructor.sol\":276:280  true */\n      dup1\n        /* \"contracts/Constructor.sol\":265:281  return (1, true) */\n      swap2\n      pop\n      swap2\n      pop\n        /* \"contracts/Constructor.sol\":200:288  function returnMany() public pure returns (uint, bool) {... */\n      swap1\n      swap2\n      jump\t// out\n        /* \"contracts/Constructor.sol\":519:616  function assigned() public pure returns (uint x, bool b) {... */\n    tag_17:\n        /* \"contracts/Constructor.sol\":560:566  uint x */\n      0x00\n        /* \"contracts/Constructor.sol\":568:574  bool b */\n      dup1\n        /* \"contracts/Constructor.sol\":590:591  1 */\n      0x01\n        /* \"contracts/Constructor.sol\":586:591  x = 1 */\n      swap2\n      pop\n        /* \"contracts/Constructor.sol\":605:609  true */\n      0x01\n        /* \"contracts/Constructor.sol\":601:609  b = true */\n      swap1\n      pop\n        /* \"contracts/Constructor.sol\":519:616  function assigned() public pure returns (uint x, bool b) {... */\n      swap1\n      swap2\n      jump\t// out\n        /* \"#utility.yul\":7:84   */\n    tag_25:\n        /* \"#utility.yul\":44:51   */\n      0x00\n        /* \"#utility.yul\":73:78   */\n      dup2\n        /* \"#utility.yul\":62:78   */\n      swap1\n      pop\n        /* \"#utility.yul\":7:84   */\n      swap2\n      swap1\n      pop\n      jump\t// out\n        /* \"#utility.yul\":90:208   */\n    tag_26:\n        /* \"#utility.yul\":177:201   */\n      tag_32\n        /* \"#utility.yul\":195:200   */\n      dup2\n        /* \"#utility.yul\":177:201   */\n      tag_25\n      jump\t// in\n    tag_32:\n        /* \"#utility.yul\":172:175   */\n      dup3\n        /* \"#utility.yul\":165:202   */\n      mstore\n        /* \"#utility.yul\":90:208   */\n      pop\n      pop\n      jump\t// out\n        /* \"#utility.yul\":214:304   */\n    tag_27:\n        /* \"#utility.yul\":248:255   */\n      0x00\n        /* \"#utility.yul\":291:296   */\n      dup2\n        /* \"#utility.yul\":284:297   */\n      iszero\n        /* \"#utility.yul\":277:298   */\n      iszero\n        /* \"#utility.yul\":266:298   */\n      swap1\n      pop\n        /* \"#utility.yul\":214:304   */\n      swap2\n      swap1\n      pop\n      jump\t// out\n        /* \"#utility.yul\":310:419   */\n    tag_28:\n        /* \"#utility.yul\":391:412   */\n      tag_35\n        /* \"#utility.yul\":406:411   */\n      dup2\n        /* \"#utility.yul\":391:412   */\n      tag_27\n      jump\t// in\n    tag_35:\n        /* \"#utility.yul\":386:389   */\n      dup3\n        /* \"#utility.yul\":379:413   */\n      mstore\n        /* \"#utility.yul\":310:419   */\n      pop\n      pop\n      jump\t// out\n        /* \"#utility.yul\":425:745   */\n    tag_10:\n        /* \"#utility.yul\":540:544   */\n      0x00\n        /* \"#utility.yul\":578:580   */\n      0x40\n        /* \"#utility.yul\":567:576   */\n      dup3\n        /* \"#utility.yul\":563:581   */\n      add\n        /* \"#utility.yul\":555:581   */\n      swap1\n      pop\n        /* \"#utility.yul\":591:662   */\n      tag_37\n        /* \"#utility.yul\":659:660   */\n      0x00\n        /* \"#utility.yul\":648:657   */\n      dup4\n        /* \"#utility.yul\":644:661   */\n      add\n        /* \"#utility.yul\":635:641   */\n      dup6\n        /* \"#utility.yul\":591:662   */\n      tag_26\n      jump\t// in\n    tag_37:\n        /* \"#utility.yul\":672:738   */\n      tag_38\n        /* \"#utility.yul\":734:736   */\n      0x20\n        /* \"#utility.yul\":723:732   */\n      dup4\n        /* \"#utility.yul\":719:737   */\n      add\n        /* \"#utility.yul\":710:716   */\n      dup5\n        /* \"#utility.yul\":672:738   */\n      tag_28\n      jump\t// in\n    tag_38:\n        /* \"#utility.yul\":425:745   */\n      swap4\n      swap3\n      pop\n      pop\n      pop\n      jump\t// out\n\n    auxdata: 0xa26469706673582212209dfe1c472de9167b1656be98a2872157e56d6119949722e6db9e88fe4204fb1464736f6c63430008130033\n}\n",
				"bytecode": {
					"linkReferences": {},
					"object": "608060405234801561001057600080fd5b50610197806100206000396000f3fe608060405234801561001057600080fd5b506004361061004c5760003560e01c806345f907a8146100515780636887344014610070578063868875441461007a578063adb4d99014610099575b600080fd5b6100596100b8565b604051610067929190610138565b60405180910390f35b6100786100c6565b005b6100826100e7565b604051610090929190610138565b60405180910390f35b6100a16100f5565b6040516100af929190610138565b60405180910390f35b600080600180915091509091565b6000806100d16100e7565b9150915060006100df6100e7565b915050505050565b600080600180915091509091565b60008060019150600190509091565b6000819050919050565b61011781610104565b82525050565b60008115159050919050565b6101328161011d565b82525050565b600060408201905061014d600083018561010e565b61015a6020830184610129565b939250505056fea26469706673582212209dfe1c472de9167b1656be98a2872157e56d6119949722e6db9e88fe4204fb1464736f6c63430008130033",
					"opcodes": "PUSH1 0x80 PUSH1 0x40 MSTORE CALLVALUE DUP1 ISZERO PUSH2 0x10 JUMPI PUSH1 0x0 DUP1 REVERT JUMPDEST POP PUSH2 0x197 DUP1 PUSH2 0x20 PUSH1 0x0 CODECOPY PUSH1 0x0 RETURN INVALID PUSH1 0x80 PUSH1 0x40 MSTORE CALLVALUE DUP1 ISZERO PUSH2 0x10 JUMPI PUSH1 0x0 DUP1 REVERT JUMPDEST POP PUSH1 0x4 CALLDATASIZE LT PUSH2 0x4C JUMPI PUSH1 0x0 CALLDATALOAD PUSH1 0xE0 SHR DUP1 PUSH4 0x45F907A8 EQ PUSH2 0x51 JUMPI DUP1 PUSH4 0x68873440 EQ PUSH2 0x70 JUMPI DUP1 PUSH4 0x86887544 EQ PUSH2 0x7A JUMPI DUP1 PUSH4 0xADB4D990 EQ PUSH2 0x99 JUMPI JUMPDEST PUSH1 0x0 DUP1 REVERT JUMPDEST PUSH2 0x59 PUSH2 0xB8 JUMP JUMPDEST PUSH1 0x40 MLOAD PUSH2 0x67 SWAP3 SWAP2 SWAP1 PUSH2 0x138 JUMP JUMPDEST PUSH1 0x40 MLOAD DUP1 SWAP2 SUB SWAP1 RETURN JUMPDEST PUSH2 0x78 PUSH2 0xC6 JUMP JUMPDEST STOP JUMPDEST PUSH2 0x82 PUSH2 0xE7 JUMP JUMPDEST PUSH1 0x40 MLOAD PUSH2 0x90 SWAP3 SWAP2 SWAP1 PUSH2 0x138 JUMP JUMPDEST PUSH1 0x40 MLOAD DUP1 SWAP2 SUB SWAP1 RETURN JUMPDEST PUSH2 0xA1 PUSH2 0xF5 JUMP JUMPDEST PUSH1 0x40 MLOAD PUSH2 0xAF SWAP3 SWAP2 SWAP1 PUSH2 0x138 JUMP JUMPDEST PUSH1 0x40 MLOAD DUP1 SWAP2 SUB SWAP1 RETURN JUMPDEST PUSH1 0x0 DUP1 PUSH1 0x1 DUP1 SWAP2 POP SWAP2 POP SWAP1 SWAP2 JUMP JUMPDEST PUSH1 0x0 DUP1 PUSH2 0xD1 PUSH2 0xE7 JUMP JUMPDEST SWAP2 POP SWAP2 POP PUSH1 0x0 PUSH2 0xDF PUSH2 0xE7 JUMP JUMPDEST SWAP2 POP POP POP POP POP JUMP JUMPDEST PUSH1 0x0 DUP1 PUSH1 0x1 DUP1 SWAP2 POP SWAP2 POP SWAP1 SWAP2 JUMP JUMPDEST PUSH1 0x0 DUP1 PUSH1 0x1 SWAP2 POP PUSH1 0x1 SWAP1 POP SWAP1 SWAP2 JUMP JUMPDEST PUSH1 0x0 DUP2 SWAP1 POP SWAP2 SWAP1 POP JUMP JUMPDEST PUSH2 0x117 DUP2 PUSH2 0x104 JUMP JUMPDEST DUP3 MSTORE POP POP JUMP JUMPDEST PUSH1 0x0 DUP2 ISZERO ISZERO SWAP1 POP SWAP2 SWAP1 POP JUMP JUMPDEST PUSH2 0x132 DUP2 PUSH2 0x11D JUMP JUMPDEST DUP3 MSTORE POP POP JUMP JUMPDEST PUSH1 0x0 PUSH1 0x40 DUP3 ADD SWAP1 POP PUSH2 0x14D PUSH1 0x0 DUP4 ADD DUP6 PUSH2 0x10E JUMP JUMPDEST PUSH2 0x15A PUSH1 0x20 DUP4 ADD DUP5 PUSH2 0x129 JUMP JUMPDEST SWAP4 SWAP3 POP POP POP JUMP INVALID LOG2 PUSH5 0x6970667358 0x22 SLT KECCAK256 SWAP14 INVALID SHR SELFBALANCE 0x2D 0xE9 AND PUSH28 0x1656BE98A2872157E56D6119949722E6DB9E88FE4204FB1464736F6C PUSH4 0x43000813 STOP CALLER "
				},
				"gasEstimates": {
					"creation": {
						"codeDepositCost": "81400",
						"executionCost": "129",
						"totalCost": "81529"
					},
					"external": {
						"assigned()": "501",
						"destructuringAssignments()": "infinite",
						"named()": "435",
						"returnMany()": "479"
					}
				},
				"methodIdentifiers": {
					"assigned()": "adb4d990",
					"destructuringAssignments()": "68873440",
					"named()": "45f907a8",
					"returnMany()": "86887544"
				}
			},
			"storageLayout": {
				"storage": [],
				"types": null
			},
			"userdoc": {
				"kind": "user",
				"methods": {},
				"version": 1
			}
		}
	}
}